:020000040800F2
:1000000028070020290200083102000833020008F6
:10001000350200083702000839020008000000001D
:100020000000000000000000000000003B0200088B
:100030003D020008000000003F02000841020008E5
:10004000430200084302000843020008430200087C
:100050004302000843020008A50400084302000808
:10006000430200084302000843020008430200085C
:10007000430200084302000843020008430200084C
:10008000430200084302000843020008430200083C
:10009000430200084302000843020008430200082C
:1000A000430200084302000843020008430200081C
:1000B000430200084302000843020008430200080C
:1000C00043020008430200084302000843020008FC
:1000D00043020008430200084302000843020008EC
:1000E00043020008430200084302000843020008DC
:1000F00043020008430200084302000843020008CC
:1001000043020008430200084302000843020008BB
:1001100043020008430200084302000843020008AB
:10012000430200084302000843020008430200089B
:10013000430200084302000843020008430200088B
:10014000430200084302000843020008430200087B
:10015000430200084302000843020008430200086B
:10016000430200084302000843020008430200085B
:10017000430200084302000843020008430200084B
:10018000430200084302000800F002F800F03CF8C7
:100190000AA090E8000C82448344AAF10107DA45E2
:1001A00001D100F031F8AFF2090EBAE80F0013F0F8
:1001B000010F18BFFB1A43F001031847F81B00009A
:1001C000181C0000103A24BF78C878C1FAD852072A
:1001D00024BF30C830C144BF04680C6070470000C1
:1001E0000023002400250026103A28BF78C1FBD840
:1001F000520728BF30C148BF0B6070471FB501F0E0
:10020000CEFD1FBD10B510BD00F031F81146FFF74F
:10021000F5FF01F0BDF800F04FF803B4FFF7F2FF6F
:1002200003BC00F057F80000094880470948004720
:10023000FEE7FEE7FEE7FEE7FEE7FEE7FEE7FEE796
:10024000FEE7FEE704480549054A064B70470000F3
:10025000250F000889010008280100202807002038
:100260002803002028030020704770477047754618
:1002700000F02CF8AE4605006946534620F0070012
:10028000854618B020B5FFF7DDFFBDE820404FF0F0
:1002900000064FF000074FF000084FF0000B21F070
:1002A0000701AC46ACE8C009ACE8C009ACE8C0093D
:1002B000ACE8C0098D46704710B50446AFF3008026
:1002C0002046BDE81040FFF7A8BF00000048704777
:1002D000C400002001491820ABBEFEE72600020042
:1002E000704700002DE9F0412DED048B002400271C
:1002F000002500264FF48051594800F0BAF900B1AA
:1003000016E04FF40051564800F0B3F908B101244B
:100310000EE04FF48041524800F0ABF908B10224DE
:1003200006E04FF400414E4800F0A3F900B1032469
:100330004C4850F82400470025E00121880700F0D0
:1003400034FE00B30121880700F020FE2CB94FF4E1
:100350008051434800F0A3F914E0012C04D161035B
:100360003F4800F09CF90DE0022C04D161033C48A9
:1003700000F095F906E0032C04D14FF40041384811
:1003800000F08DF96D1CBD42D7DD61E002213648D9
:1003900000F026FDE8B33548008881B2324800F00D
:1003A00028FD3348006800F0010098B39FED310B41
:1003B00053EC102B314890ED000B51EC100B01F079
:1003C0003FF92E4A03C29FED2E0B53EC102B2B4806
:1003D00090ED000B51EC100B01F050FB0CD29FED97
:1003E0002A0B53EC102B254890ED000B51EC100B11
:1003F00001F07AFB214A03C2204890ED000B51EC3A
:10040000100B01F0EBF808EE100AB0EE480A204895
:1004100001E01CE016E001F0B3F81E4880ED000A90
:10042000006801F04BFC41EC190B9FED1B0B53ECEA
:10043000102B01F025FA41EC180B01F0B5F900B2D0
:100440000A4908800A480068401C09490860761C6F
:10045000134886429ADBBDEC048BBDE8F0810000B6
:10046000000C024034000020003C00400C00002042
:1004700008000020B81E85EB51B88E3F1000002008
:10048000000000000000F03F0000000000000040FD
:1004900060000020180000200000000000407F40A5
:1004A000003E490010B5012000F012F838B14FF4B9
:1004B0008051034800F0F3F8012000F003F810BD6C
:1004C000000C02400149086070470000143C0140E4
:1004D00001460020034A12680A400AB1012000E0E8
:1004E00000207047143C0140002123498279002AF2
:1004F0003AD00A46126803689A430B461A600A1DEE
:10050000126803689A430B1D1A60027911440A6845
:1005100003681A430A60184A0832126803689A434B
:10052000154B08331A601A1D126803689A43124B60
:100530000C331A604279102A0ED11A1F1268036810
:100540001A430D4B08331A601A1D126803681A43C8
:10055000094B0C331A600DE00749427911440A68CF
:1005600003681A430A6005E0027911440A680368C7
:100570009A430A6070470000003C014010B5062015
:10058000054908700020487001208870C87008462E
:1005900000F0C8FA10BD000030000020F0B50A4697
:1005A00000210023002400BF3DE0012505FA01F3EE
:1005B000156805EA03049C4234D105684F00032600
:1005C000BE40B543056015794E00B5400668354319
:1005D00005601579012D02D01579022D16D1856897
:1005E0004F000326BE40B543856055794E00B540A7
:1005F000866835438560456801268E40B543456071
:10060000456896798E40B6B235434560C5684F005F
:100610000326BE40B543C560D5794E00B540C668D7
:100620003543C560491C1029BFD3F0BDF0B5002388
:1006300000244D07ED0E02FA05F3CE1000F120055F
:1006400055F826504E07F70E0F26BE40B543CF1083
:1006500000F1200646F82750CE1000F1200555F88D
:10066000265045EA0304CE1000F1200545F8264047
:10067000F0BD0246002013690B400BB1012000E0E1
:100680000020704741837047018370474FF6FF7128
:1006900001600021017141718171C171704742692E
:1006A0004A404261704721B1028842F48062028070
:1006B00004E002884FF6FF331A400280704770B59D
:1006C00002460024002500230020958A138B1B047A
:1006D00045EA030626F07F4404EA01068E4201D172
:1006E000012000E0002070BD21B1028842F001022B
:1006F000028004E002884FF6FE731A4002807047C1
:1007000010B504461348844209D10121480500F080
:1007100065FA00214FF4001000F060FA18E00E486E
:10072000844209D10121880500F058FA00214FF4D4
:10073000800000F053FA0BE00848844208D1012100
:10074000C80500F04BFA00214FF4000000F046FA13
:1007500010BD00000054004000580040005C004004
:1007600021B1028842F48072028004E002884FF6D0
:10077000FF631A400280704721B1028842F4007280
:10078000028004E002884FF6FF531A40028070474F
:100790000CB50246002000230193009300920B0F3A
:1007A000019321F07F41019B1BB1009B1433009307
:1007B00003E0090C009B18330093009B1B680B405F
:1007C0000BB1012000E000200CBD00002DE9FF4727
:1007D00004460D460026B1460427DFF8CC80A688E3
:1007E0004FF6C0700640684600F028FADDF8088031
:1007F0002E48B8FBF0F01FFA80F946EA0906A680F9
:1008000020884FF6FE71084020800026284928687D
:1008100088420CD828684000B8FBF0F087B2042F5B
:1008200000DA04273E4309F10100208427E0E8882C
:100830004BF6FF71884206D1286800EB4000B8FBF8
:10084000F0F087B209E0286800EBC00101EB00106E
:10085000B8FBF0F087B247F48047C7F30B0008B944
:1008600047F0010747F4004006434FF4967009FB38
:1008700000F04FF47A7190FBF1F0401C2084A683C5
:10088000208840F00100208026884FF6F530064091
:10089000A8886989084306432680A88929890843CE
:1008A0002081BDE8FF87000000127A0040420F005F
:1008B000A08601000146088AC0B2704712B141F01B
:1008C000010101E001F0FE010182704701827047E1
:1008D00021B1828B42F48062828304E0828B4FF6E6
:1008E000FF331A40828370472DE9F04F0025022321
:1008F0000024012700220026944690469146B0F835
:100900001CA04FF2400B0AEA0B0AA0F81CA04FF003
:10091000020AA0F820A0858BD1F808A0BAF1020F36
:1009200001D100BF6CE0B1F804A0BAF1000F01D111
:10093000012700E00227DFF810A1DAF800A00AF48E
:10094000000ABAF1000F09D0DFF8FCA0DAF800A025
:100950002AF4000ADFF8F0B0CBF800A0DFF8E8A036
:100960000AF17C0ADAF800A0CAF38818DFF8D8A0E8
:100970000AF17C0ADAF800A0CAF30279DFF8C8A00D
:10098000AAF1040ADAF800A00AF03F0CDFF8BCA0D4
:10099000BAFBFCFA0AFB08FABAFBF9F6B1F806A0B2
:1009A000BAF5007F0ED14FEA162A0AEB8A0A4FEAFF
:1009B0004A0AD1F808B0BAFBFBFA0AF1050A1FFA95
:1009C0008AF20FE04FEA471AB6FBFAFA0AEB8A0AF4
:1009D0004FEA4A0AD1F808B0BAFBFBFA0AF1050A55
:1009E0001FFA8AF24FF00A0AB2FBFAF202F001048F
:1009F000A2EB040ACAF34F034FF6FF7A0AEA042473
:100A0000022B01DBFF2B01DD02230024B1F806A03D
:100A10004AEA040A4AEA030AA0F820A0B1F804A0AE
:100A2000B1F80CB04AEA0B0AB1F802B04AEA0B0A74
:100A3000B1F800B04AEA0B0A4AF4006A4AEA05052E
:100A40008583BDE8F08F00000838024000127A006C
:100A500010B50121084600F0A1F8002006490871F0
:100A60008871012008600220C87103204871034882
:100A7000FFF794FD10BD00001C00002000000240A4
:100A800010B50121880300F0B9F80021084600F0F4
:100A9000B3F9012005490860887100200871082019
:100AA00048710846FFF720FD10BD0000240000201B
:100AB00010B50121082000F071F84FF4704006498C
:100AC00008600120087100208871C87103204871F6
:100AD0000248FFF763FD10BD1C000020000C02401F
:100AE00010B50121084600F069F840F247300C4982
:100AF0000880002048804CF24F3048600020088178
:100B000088724FF0804000F06BFA0121880700F0F6
:100B100040FA01221146900700F058FA10BD00007B
:100B20005400002070B5002100230F22C4781CB3AC
:100B3000174C246804F4E064C4F5E064C4F30721AE
:100B4000C1F10404E3B20A4144789C40E1B28478E4
:100B5000144021430C07210E0E4C05786155047892
:100B600004F01F050124AC4005786D11AD0005F1BE
:100B7000E025C5F8004109E0047804F01F050124D0
:100B8000AC40054D0678761145F8264070BD000052
:100B90000CED00E000E400E080E100E029B1064A4D
:100BA00012680243044B1A6004E0034A126882434D
:100BB000014B1A60704700003038024029B1064AE4
:100BC00012680243044B1A6004E0034A126882432D
:100BD000014B1A60704700004038024029B1064AB4
:100BE00012680243044B1A6004E0034A126882430D
:100BF000014B1A60704700002038024029B1064AB4
:100C000012680243044B1A6004E0034A12688243EC
:100C1000014B1A60704700004438024029B1064A6F
:100C200012680243044B1A6004E0034A12688243CC
:100C3000014B1A607047000024380240F0B50021D3
:100C400000220024022500260223324F3F6807F0CD
:100C50000C0121B1042905D0082937D105E02E4F18
:100C6000076036E02D4F076033E02A4F3F1F3F6893
:100C7000C7F38056274F3F1F3F6807F03F036EB111
:100C8000264FB7FBF3F7DFF88CC0ACF1040CDCF8AF
:100C900000C0CCF3881C07FB0CF40CE01E4FB7FB24
:100CA000F3F7DFF870C0ACF1040CDCF800C0CCF353
:100CB000881C07FB0CF4174F3F1F3F68C7F3014721
:100CC0007F1C7D00B4FBF5F7076002E0124F076060
:100CD00000BF00BF0F4F3F6807F0F0010909104F38
:100CE0007A5C0768D74047600A4F3F6807F4E051D5
:100CF000890A0B4F7A5C4768D7408760054F3F6889
:100D000007F46041490B064F7A5C4768D740C760DB
:100D1000F0BD0000083802400024F40000127A0000
:100D200044000020014988667047000000004742E7
:100D300010B504462448844208D101218014FFF7ED
:100D40006DFF0021A014FFF769FF3CE01F488442BB
:100D500008D101210014FFF741FF00212014FFF703
:100D60003DFF30E01A48844208D10121C013FFF74B
:100D700035FF0021E013FFF731FF24E015488442DE
:100D800008D101214014FFF749FF00216014FFF74B
:100D900045FF18E01048844209D101210805FFF7FA
:100DA0003DFF00214FF48010FFF738FF0BE00B48A8
:100DB000844208D101214805FFF730FF00214FF49C
:100DC0000010FFF72BFF10BD00300140003800403D
:100DD000003C0040003401400050014000540140FC
:100DE0000246002013890B400BB1012000E00020D7
:100DF000704781817047000030B500228B071C0FBF
:100E00000F2303FA04F20B4B8C1053F82430934356
:100E1000084C8D1044F8253023468C1053F82430AC
:100E20008C07240F00FA04F42343024C8D1044F87D
:100E3000253030BD083801400CB5002001900090ED
:100E40003448006840F480303249086000BF3148BF
:100E5000006800F4003000900198401C0190009858
:100E600018B90198B0F5A04FF1D12A48006800F4F4
:100E7000003010B10120009001E0002000900098A7
:100E8000012846D123484030006840F08050214975
:100E9000403108602048006840F440401E49086026
:100EA0001C48083000681B49083108600846006883
:100EB00040F4004008600846006840F4A050086014
:100EC0001648091F0860081F006840F08070091F5D
:100ED000086000BF0F48006800F000700028F9D0DB
:100EE00040F205700E4908600A480830006820F09A
:100EF00003000849083108600846006840F0020015
:100F0000086000BF03480830006800F00C000828A3
:100F1000F8D10CBD00380240007000400854400772
:100F2000003C024010B51548006840F470001349B9
:100F300008601348006840F0010011490860002073
:100F40000F49083108600E4800680E4908400C49F6
:100F500008600D48091D0860081F006820F4802003
:100F6000091F0860002006490C310860FFF764FF84
:100F70004FF0006001498039086010BD88ED00E045
:100F800000380240FFFFF6FE10300024CA43028200
:100F9000704721B1028842F00102028004E0028819
:100FA0004FF6FE731A400280704730B502460020AB
:100FB00000230024158A05EA0103958905EA010446
:100FC00013B10CB1012000E0002030BD1AB18389BB
:100FD0000B43838102E083898B4383817047000048
:100FE00000220288184B98420ED0184B98420BD022
:100FF000B0F1804F08D0164B984205D0154B98425F
:1010000002D0154B984204D14FF68F731A404B888B
:101010001A43124B984207D0114B984204D04FF616
:10102000FF431A400B891A4302804B68C3620B8846
:101030000385054B984202D0044B984201D18B7A2C
:1010400003860123838270470000014000040140B1
:101050000004004000080040000C00400010004068
:10106000001400407CB5FF2410215548FFF70CFB0D
:10107000544D00E06D1E002DFCD10D208DF80000B8
:1010800001208DF801000221684600F031FA0020AD
:101090008DF8000099208DF801000221684600F0CB
:1010A00027FA47208DF8000080208DF801000221EA
:1010B000684600F01DFA322000F0AAF904463220FA
:1010C0008DF8000044F080008DF801000221684690
:1010D00000F00EFA322000F09BF9044632208DF821
:1010E000000024F080008DF801000221684600F025
:1010F000FFF900208DF800008DF8010002216846FC
:1011000000F0F6F904208DF80000AF208DF8010002
:101110000221684600F0ECF90D208DF800007020E7
:101120008DF801000221684600F0E2F905208DF8F3
:10113000000081208DF801000221684600F0D8F9F6
:1011400006208DF8000007208DF801000221684676
:1011500000F0CEF90A208DF8000000208DF8010083
:101160000221684600F0C4F927208DF80000002015
:101170008DF801000221684600F0BAF99A208DF836
:1011800000000A208DF801008DF802000321684656
:1011900000F0AEF91F208DF800000F208DF801003F
:1011A0000221684600F0A4F902208DF800009E207C
:1011B0008DF801000221684600F09AF97CBD00001C
:1011C000000C024040420F001CB56846FFF75EFA73
:1011D0001020009001208DF8040002208DF80700F7
:1011E00000208DF8060002208DF8050001210B205B
:1011F000FFF7D4FC69464048FFF7D0F902208DF88C
:10120000040001208DF806004FF4107000900020BB
:101210008DF8070002208DF8050069463748FFF772
:10122000BDF9042206213548FFF700FA04220921FE
:101230003248FFF7FBF901214FF40210FFF7BEFC23
:101240000120FFF76FFD00208DF806004FF4A45039
:10125000009069462A48FFF7A1F9102000906946DE
:101260002848FFF79BF9062204212648FFF7DEF9FC
:10127000062207212248FFF7D9F906220A21204831
:10128000FFF7D4F906220C211D48FFF7CFF91021F2
:101290001948FFF7F7F91C48FFF74AFD4BF6803075
:1012A0001A4988604FF40070C880002088804FF48D
:1012B000007008800020488088811348FFF714FBE5
:1012C0001348FFF71DFA134813490860002088806F
:1012D000332008814FF480604881000188814BF6FB
:1012E000FF70C88001210A48FFF7FEF90A49084843
:1012F000FFF76CFA1CBD0000000C02400004024025
:101300000008024000000240003C0040A400002011
:1013100000540040A0860100B4000020002280F8A4
:101320004020002107E09FED150A00EB810282EDCD
:10133000000A4A1CD1B20829F5DB9FED110A80EDA5
:10134000080A9FED100A80ED090A9FED0F0A80ED53
:101350000A0A9FED0E0A80ED0B0A9FED0C0A80ED44
:101360000C0A9FED090A80ED0D0A9FED060A80ED3B
:101370000E0A9FED030A80ED0F0A7047000000007F
:101380000AD7233CCDCC4C3D8FC2F53D0AD7A33EB6
:1013900010B5FFF78DFBFFF7A3FBFFF759FBFFF736
:1013A0006FFBFFF7EBF84FF410701449086006224A
:1013B00004211348FFF73AF9012010490871002071
:1013C0008871022048710F48FFF7E8F801210420D6
:1013D000FFF7E4FBFFF7F8FEFFF744FE01210A48A0
:1013E000FFF776FA0948FFF799FF4FF48051054857
:1013F000FFF755F9FEF776FF002010BD0000002032
:1014000000000240000C0240003C00406000002050
:1014100070B50446002500BF4FF400313048FFF797
:10142000B7F90028F8D101212D48FFF799F900BF3D
:101430002C492B48FFF7ACF90028F9D00022942161
:101440002748FFF73BFA00BF27492548FFF737F940
:101450000028F9D021462248FFF738FA00BF224978
:10146000891E1F48FFF72BF90028F8D001211C48DE
:10147000FFF782F900BF4FF400311948FFF788F9F0
:101480000028F8D100211648FFF70DF90121144872
:10149000FFF766F900BF13491148FFF779F90028F3
:1014A000F9D0012294210E48FFF708FA00BF0F4936
:1014B0000B48FFF704F90028F9D000BF0B493E3173
:1014C0000748FFF7FCF80028F8D00548FFF7F2F9C5
:1014D000054601210248FFF74FF9284670BD00007C
:1014E00000540040010000108200070002000300C9
:1014F00070B505460E46002400BF4FF400311D486C
:10150000FFF746F90028F8D101211A48FFF728F91A
:1015100000BF19491748FFF73BF90028F9D000220E
:1015200094211448FFF7CAF900BF14491148FFF786
:10153000C6F80028F9D00DE0295D0E48FFF7C6F97E
:10154000601CC4B200BF0D49891E0A48FFF7B7F8F6
:101550000028F8D0B442EFDB00BF0749C91C05489A
:10156000FFF716F90028F8D001210248FFF704F927
:1015700070BD000000540040010000108200070010
:10158000F0EE400A9FED141AB0EE410A90F84010B8
:1015900000EB8103C3ED000A002214E000F12003F8
:1015A00003EB8203D3ED001A8B1803F0070300EB63
:1015B000830393ED002AB0EE401A01EE821AB0EEDA
:1015C000410A531C9AB2082AE8DB4B1C99B201F07D
:1015D000070180F8401070470000000021F0004231
:1015E000A2F16052B2F5801F01F0004328BFD2F192
:1015F0007F6C0BD95FEA001C43EAC20242EB5070D9
:1016000018BF704728BF20F001007047B2F5801F57
:10161000BCBF184670474FEA410C1CF5001F02D2B0
:10162000084600F0C1BB70B500F0D4F90000008995
:10163000FFF7F6BF4FF00040A0F5800070470000B4
:1016400010B591EA030F48BF83F0004300F15482C4
:10165000841A71EB030C05D2121943EB0C03001B27
:1016600061EB0C01DFF824E14FEA1154A4EB135CA9
:101670001EEA430F18BF9EEA445F73D023EA0E03AD
:10168000DCF1200E21EA045143F4801332D322FA14
:101690000CFE10EB0E0023FA0CFE41EB0E01CCF118
:1016A000200E03FA0EFE10EB0E0051F10001B1F511
:1016B000801FCCF1200E32D201EB045112FA0EF24F
:1016C000BDE8104058BF7047401C38BF5FEA420277
:1016D00018BF7047002814BF20F0010041F100013D
:1016E0004FEA410313F5001F38BF7047A1F1C04115
:1016F00000F0BEB9012A43EB0302ACF1200CDCF18F
:101700001F0E32BF4FF0000E23FA0CF310EB030054
:1017100041EB0451B4EB115FD0D0A1EB045101F5C2
:10172000801149085FEA300001EB04510ED350F1FB
:10173000000038BF12FA0EFE08D1BDE81040C9E71C
:10174000401C38BF5FEA4202CAD1C3E7BDE810407F
:101750004FEA410313F5001F38BF7047A1F1C041A4
:1017600000F086B99EEA445F08D011EA5E0FBDE83A
:10177000104004BF01F0004100207047BDE8104058
:1017800070B500F027F900BF64FBBE3E0000E0FF2B
:10179000491058BFC1F140415B1058BFC3F14043ED
:1017A0008B42EFF3008070474FEA41034FEA5353F7
:1017B000A3F58063D3F11E03C8BFD3F1210C0CDD68
:1017C0004FF0004242EAC12242EA505232FA03FC90
:1017D0008CEAE17CACEBE1707047102BC4BF0020B9
:1017E000704703F5787CBCF1FF3F04D06FF00042F6
:1017F00082EA2100704770B500F0ECF8499224802D
:1018000000207047F2E7000051EA030C17D41CF5E2
:10181000801F58BFBCF5801F00F10680994218BF99
:10182000704708BF9042704707D711F5801F58BF17
:1018300013F5801F19D499427047894270471CF5EF
:10184000801F08D5BCF5801FF7D58B4218BF7047A5
:1018500008BF824270474FF4001C1CEB410F38BF99
:101860001CEB430F01D28B42704770B500F0B2F809
:10187000922449004FF000514FF08053FFF788BF8A
:10188000DFF848C170B51CEA111E1EBF1CEA131513
:101890009EEA0C0F95EA0C0F00F06F8081EA0304BA
:1018A00023EA4C134EEAD47E21EA4C1141F4801114
:1018B00043F48013AE44A1FB024CA0FB0365AEF1E0
:1018C0007F7E361955EB0C05A1FB034C4CF1000350
:1018D000A0FB021C16EB0C06654153F10003094204
:1018E00018BF46F0010613F4007F0BD14FEA033115
:1018F0004FEA0530340341EA155140EA16506FF0C3
:1019000003020AE04FEAC3214FEAC520F40241EA8C
:10191000555140EA56506FF0020202EB2E4201EBA5
:10192000025585EACE710AD05FEA440C18BF24F054
:10193000004450F1000041F1000120EAD47040F26F
:10194000FE7C624500D270BDA84214BF4FF08044B7
:101950004FF04044002E08BF0024BEF1806FA8BFA6
:10196000A1F1C041BDE8704080F282804FF00000DC
:1019700001F1C04101F0004170479EEA0C0F0CEAF2
:10198000131518BF95EA0C0F06D04FF0000081EA3E
:10199000030E0EF0004170BD00F01CF88900013EFE
:1019A00000F007B800F009B84FEA430C5FEA5C5C4E
:1019B00008D081EA030100F05BB84FEA410C5FEA0E
:1019C0005C5CF6D14FF00000014970470000FF0752
:1019D0000000F87F0EF1020E2EF0030E5EF8046B8D
:1019E000364205D4012A43EB030515F5001F12D832
:1019F000012841EB010C1CF5001F0CD80ED14FEA59
:101A0000D17C15F5001F0CEB4C0C0CF1020C08BF3F
:101A10004CEBD37C04E04FF0080C01E04FEAD37CA0
:101A20000CEB4C0526FA05F606F00706B6F1040C99
:101A300006D20EEB860CBDE870404CF0010C6047FE
:101A4000DFE80CF0090B02024FF000414FF00000FC
:101A5000A1F5002170BD19461046012851EB010483
:101A600018BFD4F5001484BF002001F0004170BD00
:101A70000808A0F500114FEA3101704753EA010C44
:101A800017D41CF5801F58BFBCF5801F00F10680DD
:101A90008B4218BF704708BF8242704707D713F5C3
:101AA000801F58BF11F5801F19D48B4270479B428D
:101AB00070471CF5801F08D5BCF5801FF7D59942EB
:101AC00018BF704708BF904270474FF4001C1CEBD2
:101AD000430F38BF1CEB410F01D2994270470FB43E
:101AE0000CBC03BCFFF7C1BE10B591EA030F48BFA1
:101AF00083F000433FF5ACAD841A71EB030C07D2C1
:101B000012198CF0004C43EB0C03001B61EB0C0131
:101B1000DFF8A4E14FEA1154A4EB135C1EEA430F73
:101B200018BF9EEA445F00F0B08023EA6E03524281
:101B300021EA0451C3EB6E0338BF5B1EDCF1200EBB
:101B400025D322FA0CFE10EB0E0043FA0CFE41EBFB
:101B50000E01CCF1200E03FA0EFE10EB0E0051F137
:101B60000001CCF1200E29D412FA0EF201EB04513F
:101B7000BDE8104058BF7047401C1CBFB2F1004F79
:101B8000704700280CBF491C20F00100704712EB81
:101B9000020E43EB030218BF4FF0010E4EEA420261
:101BA000ACF1200CDCF11E0E54D943FA0CFE10EB04
:101BB0000E0051F1FF31CCF11E0ED5D50EF1010E04
:101BC00012FA0EFE404141EB010101EB445C5FEA79
:101BD0005C5C10D910EBDE7001EB045138BFBEF134
:101BE000004FBDE8104018BF704700280CBF491CCB
:101BF00020F00100704730D24FEAD42C11F50011CB
:101C000024F400641BD0B1FA81F20B3AA41AA41E8A
:101C1000D2F12003914030FA03F31943904001EBD5
:101C2000CC71002C01EB0451BDE81040A8BF7047F7
:101C300001F1C0414FF0000001F000417047B0FADF
:101C400080F310FA03F100D110BDE41A173C4805E7
:101C5000C90AE4E701EB045110BD491001EB04513E
:101C6000BDE810404FEA300002E04FF0000170473D
:101C70004A0008BF0042F8D0B2F5001F28BF7047E5
:101C800001F000414FF0000070479EEA445F07D02A
:101C900011EA5E0FBDE8104004BF0021002070472C
:101CA000BDE8104070B5FFF795FE00BF40DFF63E7F
:101CB00083F00041104670470000E0FF43004FEA08
:101CC000D30C4FEA3C0C43401FBF40070CF160515E
:101CD00013F0FE4F70471CF0006F03D100200CF092
:101CE000004170470CF0004343EA507010B540EAE1
:101CF000CC0000F00EF800BF000000924FEA000197
:101D0000FFF7B6BE4FF000414FF00000A1F50021F3
:101D100070470EF1020E2EF0030E5EF8044B2442C3
:101D200004D44FEA4102B2F17F4F11D84FEA400389
:101D3000B3F17F4F0CD80ED14FEAD07CB2F17F4F78
:101D40000CEB4C0C0CF1020C08BF4CEBD17C04E00A
:101D50004FF0080C01E04FEAD17C0CEB4C0324FA65
:101D600003F404F00704B4F1040C06D20EEB840C67
:101D7000BDE810404CF0010C6047DFE80CF00708AC
:101D800002024FF00040A0F5800010BD084642005E
:101D900018BFD2F1807288BF00F0004010BD4FF034
:101DA0004070E1EE100A7047FF2141EAD050C005B3
:101DB00070470000D41D00080000002054000000FF
:101DC000C4010008281E000854000020D4060000AA
:101DD000E00100080000000000000000000000001A
:101DE00000000000000000000000000000000000F3
:101DF00000000000000000000000000000000000E3
:101E000000000000000000000200000028000000A8
:101E10002D00000032000000000000000102030459
:081E2000010203040607080992
:0400000508000229C4
:00000001FF
