:020000040800F2
:100000005807002029020008F10900082D05000802
:10001000ED090008E3020008D1120008000000000A
:10002000000000000000000000000000CB0C0008F1
:10003000E7020008000000006D0A0008F90D000842
:10004000430200084302000843020008430200087C
:100050004302000843020008E902000843020008C6
:10006000430200084302000843020008430200085C
:10007000430200084302000843020008430200084C
:10008000430200084302000843020008430200083C
:10009000430200084302000843020008430200082C
:1000A000430200084302000843020008790E0008DA
:1000B0007D0E00089D100008F91100084302000899
:1000C00043020008430200084302000843020008FC
:1000D00043020008430200084302000843020008EC
:1000E00043020008430200084302000843020008DC
:1000F00043020008430200084302000843020008CC
:1001000043020008430200084302000843020008BB
:1001100043020008430200084302000843020008AB
:10012000430200084302000843020008430200089B
:10013000430200084302000843020008430200088B
:10014000430200084302000843020008430200087B
:10015000430200084302000843020008430200086B
:10016000430200084302000843020008430200085B
:10017000430200084302000843020008430200084B
:10018000430200084302000800F002F800F03CF8C7
:100190000AA090E8000C82448344AAF10107DA45E2
:1001A00001D100F031F8AFF2090EBAE80F0013F0F8
:1001B000010F18BFFB1A43F001031847D41E0000BB
:1001C000F41E0000103A24BF78C878C1FAD852074C
:1001D00024BF30C830C144BF04680C6070470000C1
:1001E0000023002400250026103A28BF78C1FBD840
:1001F000520728BF30C148BF0B6070471FB501F0E0
:100200003CFF1FBD10B510BD00F031F81146FFF7DF
:10021000F5FF01F0F5F900F04FF803B4FFF7F2FF36
:1002200003BC00F057F80000094880470948004720
:10023000FEE7FEE7FEE7FEE7FEE7FEE7FEE7FEE796
:10024000FEE7FEE704480549054A064B70470000F3
:10025000110E0008890100085801002058070020ED
:1002600058030020580300207047704770477546B8
:1002700000F02CF8AE4605006946534620F0070012
:10028000854618B020B5FFF7DDFFBDE820404FF0F0
:1002900000064FF000074FF000084FF0000B21F070
:1002A0000701AC46ACE8C009ACE8C009ACE8C0093D
:1002B000ACE8C0098D46704710B50446AFF3008026
:1002C0002046BDE81040FFF7A8BF00000048704777
:1002D000F400002001491820ABBEFEE72600020012
:1002E000704700BFFEE7704710B5012000F01CF812
:1002F00070B10848006818B90121074800F080FF74
:1003000004480068401C03490860012000F006F81A
:1003100010BD0000480000200004004001490860B2
:1003200070470000143C014001460020034A126857
:100330000A400AB1012000E000207047143C01404F
:10034000002123498279002A3AD00A4612680368BC
:100350009A430B461A600A1D126803689A430B1DE4
:100360001A60027911440A6803681A430A60184A3D
:100370000832126803689A43154B08331A601A1D35
:10038000126803689A43124B0C331A604279102AA0
:100390000ED11A1F126803681A430D4B08331A60F6
:1003A0001A1D126803681A43094B0C331A600DE0DA
:1003B0000749427911440A6803681A430A6005E054
:1003C000027911440A6803689A430A607047000082
:1003D000003C014010B50620054908700020487017
:1003E00001208870C870084600F004FB10BD0000B2
:1003F0003000002010B51C2005490870002048700E
:10040000032088700120C870084600F0F3FA10BD80
:100410002C00002010B51D200549087000204870F0
:10042000022088700120C870084600F0E3FA10BD71
:100430002C000020F0B50A4600210023002400BF54
:100440003DE0012505FA01F3156805EA03049C4225
:1004500034D105684F000326BE40B54305601579C9
:100460004E00B5400668354305601579012D02D070
:100470001579022D16D185684F000326BE40B5437D
:10048000856055794E00B54086683543856045687E
:1004900001268E40B5434560456896798E40B6B2D8
:1004A00035434560C5684F000326BE40B543C5606F
:1004B000D5794E00B540C6683543C560491C102942
:1004C000BFD3F0BDF0B5002300244D07ED0E02FAB6
:1004D00005F3CE1000F1200555F826504E07F70E13
:1004E0000F26BE40B543CF1000F1200646F8275036
:1004F000CE1000F1200555F8265045EA0304CE1031
:1005000000F1200545F82640F0BD41837047018386
:1005100070474FF6FF7101600021017141718171D7
:10052000C171704742694A404261704700BFFEE7AF
:1005300021B1028842F48062028004E002884FF612
:10054000FF331A400280704770B502460024002530
:1005500000230020958A138B1B0445EA030626F02E
:100560007F4404EA01068E4201D1012000E0002010
:1005700070BD21B1028842F00102028004E00288CD
:100580004FF6FE731A4002807047000010B5044613
:100590001348844209D10121480500F089FA00215D
:1005A0004FF4001000F084FA18E00E48844209D19C
:1005B0000121880500F07CFA00214FF4800000F052
:1005C00077FA0BE00848844208D10121C80500F001
:1005D0006FFA00214FF4000000F06AFA10BD00002D
:1005E0000054004000580040005C004021B10288E7
:1005F00042F48072028004E002884FF6FF631A40E2
:100600000280704721B1028842F40072028004E047
:1006100002884FF6FF531A40028070470CB502461D
:10062000002000230193009300920B0F019321F00F
:100630007F41019B1BB1009B1433009303E0090C25
:10064000009B18330093009B1B680B400BB10120EB
:1006500000E000200CBD00002DE9FF4704460D46D8
:100660000026B1460427DFF8CC80A6884FF6C0707C
:100670000640684600F04CFADDF808802E48B8FBCA
:10068000F0F01FFA80F946EA0906A68020884FF6A6
:10069000FE710840208000262849286888420CD82E
:1006A00028684000B8FBF0F087B2042F00DA042776
:1006B0003E4309F10100208427E0E8884BF6FF71F2
:1006C000884206D1286800EB4000B8FBF0F087B202
:1006D00009E0286800EBC00101EB0010B8FBF0F066
:1006E00087B247F48047C7F30B0008B947F001070A
:1006F00047F4004006434FF4967009FB00F04FF4B6
:100700007A7190FBF1F0401C2084A683208840F091
:100710000100208026884FF6F5300640A8886989B8
:10072000084306432680A889298908432081BDE81B
:10073000FF87000000127A0040420F00A0860100EF
:100740000146088AC0B2704712B141F0010101E0D0
:1007500001F0FE01018270470182704721B1828B56
:1007600042F48062828304E0828B4FF6FF331A40AA
:10077000828370472DE9F04F0025022300240127D2
:1007800000220026944690469146B0F81CA04FF2F5
:10079000400B0AEA0B0AA0F81CA04FF0020AA0F8CE
:1007A00020A0858BD1F808A0BAF1020F01D100BFBB
:1007B0006CE0B1F804A0BAF1000F01D1012700E00C
:1007C0000227DFF810A1DAF800A00AF4000ABAF153
:1007D000000F09D0DFF8FCA0DAF800A02AF4000A24
:1007E000DFF8F0B0CBF800A0DFF8E8A00AF17C0A4F
:1007F000DAF800A0CAF38818DFF8D8A00AF17C0A5A
:10080000DAF800A0CAF30279DFF8C8A0AAF1040A56
:10081000DAF800A00AF03F0CDFF8BCA0BAFBFCFA43
:100820000AFB08FABAFBF9F6B1F806A0BAF5007FA0
:100830000ED14FEA162A0AEB8A0A4FEA4A0AD1F881
:1008400008B0BAFBFBFA0AF1050A1FFA8AF20FE0B8
:100850004FEA471AB6FBFAFA0AEB8A0A4FEA4A0A43
:10086000D1F808B0BAFBFBFA0AF1050A1FFA8AF2BE
:100870004FF00A0AB2FBFAF202F00104A2EB040AFA
:10088000CAF34F034FF6FF7A0AEA0424022B01DB76
:10089000FF2B01DD02230024B1F806A04AEA040A76
:1008A0004AEA030AA0F820A0B1F804A0B1F80CB0FD
:1008B0004AEA0B0AB1F802B04AEA0B0AB1F800B0F2
:1008C0004AEA0B0A4AF4006A4AEA05058583BDE84C
:1008D000F08F00000838024000127A0010B50121A4
:1008E000084600F0C5F8002006490871887101200B
:1008F00008600220C871032048710348FFF79AFD81
:1009000010BD00001C0000200000024010B50121B5
:10091000880300F0DDF80021084600F0D7F9012037
:100920000549086088710020087108204871084650
:10093000FFF706FD10BD00002400002010B50121C6
:10094000082000F095F84FF4704006490860012037
:10095000087100208871C871032048710248FFF7B0
:1009600069FD10BD1C000020000C024010B50121E3
:10097000084600F08DF840F247300C49088000200E
:1009800048804CF24F3048600020088188724FF058
:10099000804000F05BFC00214FF0804000F030FC14
:1009A00001221146900700F048FC10BD8400002091
:1009B00010B50121022000F06BF840F247300949E0
:1009C0000880002048804CF24F30486000200881A9
:1009D0008872054800F03AFC01221146024800F0F6
:1009E0002CFC10BD840000200004004000BFFEE786
:1009F0007047000070B5002100230F22C4781CB39B
:100A0000174C246804F4E064C4F5E064C4F30721DF
:100A1000C1F10404E3B20A4144789C40E1B2847815
:100A2000144021430C07210E0E4C057861550478C3
:100A300004F01F050124AC4005786D11AD0005F1EF
:100A4000E025C5F8004109E0047804F01F05012401
:100A5000AC40054D0678761145F8264070BD000083
:100A60000CED00E000E400E080E100E070470000F1
:100A700029B1064A12680243044B1A6004E0034A93
:100A800012688243014B1A60704700003038024000
:100A900029B1064A12680243044B1A6004E0034A73
:100AA00012688243014B1A607047000040380240D0
:100AB00029B1064A12680243044B1A6004E0034A53
:100AC00012688243014B1A607047000020380240D0
:100AD00029B1064A12680243044B1A6004E0034A33
:100AE00012688243014B1A6070470000443802408C
:100AF00029B1064A12680243044B1A6004E0034A13
:100B000012688243014B1A6070470000243802408B
:100B1000F0B5002100220024022500260223324FD6
:100B20003F6807F00C0121B1042905D0082937D10D
:100B300005E02E4F076036E02D4F076033E02A4F67
:100B40003F1F3F68C7F38056274F3F1F3F6807F09E
:100B50003F036EB1264FB7FBF3F7DFF88CC0ACF163
:100B6000040CDCF800C0CCF3881C07FB0CF40CE090
:100B70001E4FB7FBF3F7DFF870C0ACF1040CDCF8E4
:100B800000C0CCF3881C07FB0CF4174F3F1F3F68D5
:100B9000C7F301477F1C7D00B4FBF5F7076002E057
:100BA000124F076000BF00BF0F4F3F6807F0F00112
:100BB0000909104F7A5C0768D74047600A4F3F68C1
:100BC00007F4E051890A0B4F7A5C4768D740876089
:100BD000054F3F6807F46041490B064F7A5C476850
:100BE000D740C760F0BD0000083802400024F40080
:100BF00000127A00600000200149886670470000FA
:100C00000000474210B504462448844208D101211F
:100C10008014FFF76DFF0021A014FFF769FF3CE08F
:100C20001F48844208D101210014FFF741FF002131
:100C30002014FFF73DFF30E01A48844208D101211B
:100C4000C013FFF735FF0021E013FFF731FF24E069
:100C50001548844208D101214014FFF749FF0021C3
:100C60006014FFF745FF18E01048844209D10121C4
:100C70000805FFF73DFF00214FF48010FFF738FF14
:100C80000BE00B48844208D101214805FFF730FFF3
:100C900000214FF40010FFF72BFF10BD0030014082
:100CA00000380040003C004000340140005001404A
:100CB000005401400246002013890B400BB1012073
:100CC00000E00020704781817047704730B50022F6
:100CD0008B071C0F0F2303FA04F20B4B8C1053F8F5
:100CE00024309343084C8D1044F8253023468C1053
:100CF00053F824308C07240F00FA04F42343024CE9
:100D00008D1044F8253030BD083801400CB5002066
:100D1000019000903448006840F480303249086007
:100D200000BF3148006800F4003000900198401C7A
:100D30000190009818B90198B0F5A04FF1D12A4858
:100D4000006800F4003010B10120009001E00020A4
:100D500000900098012846D123484030006840F0B8
:100D600080502149403108602048006840F44040EC
:100D70001E4908601C48083000681B49083108609B
:100D80000846006840F4004008600846006840F4E7
:100D9000A05008601648091F0860081F006840F04E
:100DA0008070091F086000BF0F48006800F00070E5
:100DB0000028F9D040F205700E4908600A48083052
:100DC000006820F003000849083108600846006800
:100DD00040F00200086000BF03480830006800F0DF
:100DE0000C000828F8D10CBD00380240007000400B
:100DF00008544007003C02400448006820B1034802
:100E00000068401E01490860704700005C00002037
:100E100010B51548006840F4700013490860134885
:100E2000006840F001001149086000200F490831B6
:100E300008600E4800680E4908400C4908600D48DB
:100E4000091D0860081F006820F48020091F086041
:100E5000002006490C310860FFF758FF4FF0006092
:100E600001498039086010BD88ED00E0003802407B
:100E7000FFFFF6FE103000247047000070B52DED26
:100E8000048B0121880700F0C7F900287ED00024D8
:100E90006E4800680C386E4951F820506D000121F1
:100EA000880700F0AAF96B480068A84230DC6A485D
:100EB000006801282CD1654800680C2805D14FF442
:100EC00080516648FFF72EFB1CE0604800680D2843
:100ED00005D14FF400516148FFF724FB12E05B4855
:100EE00000680E2805D14FF480415C48FFF71AFBDB
:100EF00008E0564800680F2804D14FF400415748D5
:100F0000FFF710FB53480068401C5249086098E006
:100F10004E4800680C384E4951F820004D49096888
:100F200088427DDA00214FF0804000F069F94A489C
:100F30000068012867D163E002214948FFF7BAFE43
:100F400000285CD04748008881B24548FFF7BBFEC7
:100F50004548006800F00100F0B39FED440B53ECEE
:100F6000102B444890ED000B51EC100B00F0D6FC18
:100F7000404A03C29FED400B53EC102B3D4890EDCF
:100F8000000B51EC100B00F0E7FE00E05AE00CD231
:100F90009FED3B0B53EC102B364890ED000B51ECC2
:100FA000100B00F00FFF334A03C2324890ED000BE4
:100FB00051EC100B00F080FC08EE100AB0EE480A6D
:100FC000314800F04BFC314880ED000A006800F029
:100FD000E3FF41EC190B00E00CE09FED2D0B53EC0F
:100FE000102B00F0BBFD41EC180B00F04BFD00B2E4
:100FF0001C4908801C480068401C1B490860641C90
:101000002548844298DB4FF480511448FFF77FFA5B
:101010004FF400511148FFF778FA4FF4804100E097
:101020000FE00E48FFF771FA4FF400410B48FFF74D
:101030006CFA0C2005490860002007490860054942
:10104000086000BFBDEC048B70BD000044000020B0
:1010500034000020500000204C000020000C024012
:10106000003C00400C00002008000020B81E85EB6A
:1010700051B88E3F10000020000000000000F03F3B
:101080000000000000000040900000201800002038
:101090000000000000407F40003E490010B50121E3
:1010A0004F4800F0B9F8002875D04E480468002079
:1010B0004C49086000214A4800F0A2F80121484844
:1010C00000F09BF8012C4FD14748006800284BD115
:1010D000464800680F280BD1E1034548FFF715FA91
:1010E00021034348FFF713FA0C204049086075E0DC
:1010F0003E4800680E280FD14FF480413C48FFF76E
:1011000004FA4FF400413A48FFF701FA3748006803
:10111000401C3649086061E0344800680D280FD152
:101120004FF400513248FFF7F0F94FF48041304856
:10113000FFF7EDF92D480068401C2C4908604DE090
:101140002A4800680C2849D14FF480512848FFF7FD
:10115000DCF94FF400512648FFF7D9F9234800681D
:10116000401C2249086039E0022C0AD11E48006860
:1011700038B901201C4908600121800700F040F8BF
:101180002CE0012C08D118480068012804D1002067
:101190001849086022E022E0022C1FD112480068A2
:1011A00001281BD10021800700F02AF8E102104835
:1011B000FFF7ADF921030E48FFF7A7F961030C48CB
:1011C000FFF7A3F9A1030A48FFF79FF90C2007498D
:1011D00008600020044908600649086000BF10BD8F
:1011E00000040040480000204C0000204400002083
:1011F000000C0240500000207047CA430282704732
:1012000021B1028842F00102028004E002884FF618
:10121000FE731A400280704730B50246002000235A
:101220000024158A05EA0103958905EA010413B132
:101230000CB1012000E0002030BD1AB183890B43BE
:10124000838102E083898B43838170470022028877
:10125000184B98420ED0184B98420BD0B0F1804FEB
:1012600008D0164B984205D0154B984202D0154B2A
:10127000984204D14FF68F731A404B881A43124B91
:10128000984207D0114B984204D04FF6FF431A40C2
:101290000B891A4302804B68C3620B880385054B98
:1012A000984202D0044B984201D18B7A03860123E5
:1012B00083827047000001400004014000040040A8
:1012C00000080040000C00400010004000140040E6
:1012D00000BFFEE77CB5FF2410215548FFF717F942
:1012E000544D00E06D1E002DFCD10D208DF8000046
:1012F00001208DF801000221684600F067FA002005
:101300008DF8000099208DF801000221684600F058
:101310005DFA47208DF8000080208DF80100022141
:10132000684600F053FA322000F0E0F9044632201B
:101330008DF8000044F080008DF80100022168461D
:1013400000F044FA322000F0D1F9044632208DF842
:10135000000024F080008DF801000221684600F0B2
:1013600035FA00208DF800008DF801000221684652
:1013700000F02CFA04208DF80000AF208DF8010059
:101380000221684600F022FA0D208DF8000070203E
:101390008DF801000221684600F018FA05208DF84A
:1013A000000081208DF801000221684600F00EFA4D
:1013B00006208DF8000007208DF801000221684604
:1013C00000F004FA0A208DF8000000208DF80100DA
:1013D0000221684600F0FAF927208DF8000000206D
:1013E0008DF801000221684600F0F0F99A208DF88E
:1013F00000000A208DF801008DF8020003216846E4
:1014000000F0E4F91F208DF800000F208DF8010096
:101410000221684600F0DAF902208DF800009E20D3
:101420008DF801000221684600F0D0F97CBD000073
:10143000000C024040420F001CB56846FFF769F8F7
:101440001020009001208DF8040002208DF8070084
:1014500000208DF8060002208DF8050001210B20E8
:10146000FFF706FB69464048FEF7E4FF02208DF8CF
:10147000040001208DF806004FF410700090002049
:101480008DF8070002208DF8050069463748FEF701
:10149000D1FF042206213548FFF714F80422092160
:1014A0003248FFF70FF801214FF40210FFF7F0FA6E
:1014B0000120FFF7A1FB00208DF806004FF4A45097
:1014C000009069462A48FEF7B5FF10200090694653
:1014D0002848FEF7AFFF062204212648FEF7F2FF58
:1014E000062207212248FEF7EDFF06220A212048A6
:1014F000FEF7E8FF06220C211D48FEF7E3FF10214E
:101500001948FFF702F81C48FFF77CFB4BF68030C8
:101510001A4988604FF40070C880002088804FF41A
:10152000007008800020488088811348FFF722F966
:101530001348FFF72BF813481349086000208880F0
:10154000332008814FF480604881000188814BF688
:10155000FF70C88001210A48FFF70BF80A490848C4
:10156000FFF77AF81CBD0000000C024000040240A6
:101570000008024000000240003C0040D40000206F
:1015800000540040A0860100E4000020002280F802
:101590004020002107E09FED150A00EB810282ED5B
:1015A000000A4A1CD1B20829F5DB9FED110A80ED33
:1015B000080A9FED100A80ED090A9FED0F0A80EDE1
:1015C0000A0A9FED0E0A80ED0B0A9FED0C0A80EDD2
:1015D0000C0A9FED090A80ED0D0A9FED060A80EDC9
:1015E0000E0A9FED030A80ED0F0A7047000000000D
:1015F0000AD7233CCDCC4C3D8FC2F53D0AD7A33E44
:10160000FFF79CF9FFF7B2F9FFF7D2F9FEF7F2FE08
:10161000FEF700FFFFF762F9FFF778F9FEF7DAFE51
:101620004FF4107029490860062204212848FEF76B
:1016300049FF012025490871002088710220487166
:1016400001210820FFF714FA224800684FF47A724B
:10165000B0FBF2F1481EB0F1807F00D31BE0481EC2
:101660004FF0E022506150170F22002804DB1307CF
:101670001C0E194B1C5406E013071D0E174B00F0EF
:101680000F04241F1D5500BF00204FF0E022906181
:101690000720106100BF0D491148FEF7CBFE012164
:1016A0000420FFF7E5F9FFF7C7FEFFF713FE01215E
:1016B0000C48FFF753F80C48FFF768FF4FF48051D0
:1016C0000748FEF72FFF00BFFEE7000000000020E4
:1016D000000002407000002000E400E018ED00E08F
:1016E000000C0240003C00409000002070B5044611
:1016F000002500BF4FF400313048FEF78FFF00286F
:10170000F8D101212D48FEF771FF00BF2C492B486D
:10171000FEF784FF0028F9D0002294212748FFF724
:1017200013F800BF27492548FEF70EFF0028F9D01F
:1017300021462248FFF710F800BF2249891E1F48A2
:10174000FEF702FF0028F8D001211C48FEF75AFFDF
:1017500000BF4FF400311948FEF760FF0028F8D1B0
:1017600000211648FEF7E4FE01211448FEF73EFF73
:1017700000BF13491148FEF751FF0028F9D001229C
:1017800094210E48FEF7E0FF00BF0F490B48FEF71B
:10179000DBFE0028F9D000BF0B493E310748FEF7B9
:1017A000D3FE0028F8D00548FEF7CAFF0546012100
:1017B0000248FEF727FF284670BD00000054004095
:1017C00001000010820007000200030070B505460A
:1017D0000E46002400BF4FF400311D48FEF71EFFE7
:1017E0000028F8D101211A48FEF700FF00BF19496F
:1017F0001748FEF713FF0028F9D00022942114485F
:10180000FEF7A2FF00BF14491148FEF79DFE002815
:10181000F9D00DE0295D0E48FEF79EFF601CC4B2B2
:1018200000BF0D49891E0A48FEF78EFE0028F8D039
:10183000B442EFDB00BF0749C91C0548FEF7EEFEC6
:101840000028F8D001210248FEF7DCFE70BD000040
:10185000005400400100001082000700F0EE400A32
:101860009FED141AB0EE410A90F8401000EB81038E
:10187000C3ED000A002214E000F1200303EB820311
:10188000D3ED001A8B1803F0070300EB830393EDED
:10189000002AB0EE401A01EE821AB0EE410A531C43
:1018A0009AB2082AE8DB4B1C99B201F0070180F8D4
:1018B000401070470000000021F00042A2F1605289
:1018C000B2F5801F01F0004328BFD2F17F6C0BD925
:1018D0005FEA001C43EAC20242EB507018BF704737
:1018E00028BF20F001007047B2F5801FBCBF18462A
:1018F00070474FEA410C1CF5001F02D2084600F069
:10190000C1BB70B500F0D4F900000089FFF7F6BF45
:101910004FF00040A0F580007047000010B591EA3C
:10192000030F48BF83F0004300F15482841A71EB27
:10193000030C05D2121943EB0C03001B61EB0C01E5
:10194000DFF824E14FEA1154A4EB135C1EEA430FC5
:1019500018BF9EEA445F73D023EA0E03DCF1200E29
:1019600021EA045143F4801332D322FA0CFE10EB27
:101970000E0023FA0CFE41EB0E01CCF1200E03FA0F
:101980000EFE10EB0E0051F10001B1F5801FCCF1FD
:10199000200E32D201EB045112FA0EF2BDE81040D3
:1019A00058BF7047401C38BF5FEA420218BF7047FB
:1019B000002814BF20F0010041F100014FEA41036B
:1019C00013F5001F38BF7047A1F1C04100F0BEB948
:1019D000012A43EB0302ACF1200CDCF11F0E32BFF5
:1019E0004FF0000E23FA0CF310EB030041EB04510F
:1019F000B4EB115FD0D0A1EB045101F5801149087F
:101A00005FEA300001EB04510ED350F1000038BF03
:101A100012FA0EFE08D1BDE81040C9E7401C38BFDD
:101A20005FEA4202CAD1C3E7BDE810404FEA410372
:101A300013F5001F38BF7047A1F1C04100F086B90F
:101A40009EEA445F08D011EA5E0FBDE8104004BF73
:101A500001F0004100207047BDE8104070B500F073
:101A600027F900BF64FBBE3E0000E0FF491058BFED
:101A7000C1F140415B1058BFC3F140438B42EFF3CB
:101A8000008070474FEA41034FEA5353A3F5806348
:101A9000D3F11E03C8BFD3F1210C0CDD4FF000427F
:101AA00042EAC12242EA505232FA03FC8CEAE17C5B
:101AB000ACEBE1707047102BC4BF0020704703F5FA
:101AC000787CBCF1FF3F04D06FF0004282EA210035
:101AD000704770B500F0ECF8499224800020704700
:101AE000F2E7000051EA030C17D41CF5801F58BF21
:101AF000BCF5801F00F10680994218BF704708BFEF
:101B00009042704707D711F5801F58BF13F5801F0B
:101B100019D499427047894270471CF5801F08D537
:101B2000BCF5801FF7D58B4218BF704708BF8242B3
:101B300070474FF4001C1CEB410F38BF1CEB430FE8
:101B400001D28B42704770B500F0B2F89224490080
:101B50004FF000514FF08053FFF788BFDFF848C1C6
:101B600070B51CEA111E1EBF1CEA13159EEA0C0F6D
:101B700095EA0C0F00F06F8081EA030423EA4C130E
:101B80004EEAD47E21EA4C1141F4801143F48013D3
:101B9000AE44A1FB024CA0FB0365AEF17F7E36197B
:101BA00055EB0C05A1FB034C4CF10003A0FB021C00
:101BB00016EB0C06654153F10003094218BF46F0CD
:101BC000010613F4007F0BD14FEA03314FEA0530D1
:101BD000340341EA155140EA16506FF003020AE05F
:101BE0004FEAC3214FEAC520F40241EA555140EAC9
:101BF00056506FF0020202EB2E4201EB025585EACD
:101C0000CE710AD05FEA440C18BF24F0004450F1B2
:101C1000000041F1000120EAD47040F2FE7C6245F0
:101C200000D270BDA84214BF4FF080444FF0404432
:101C3000002E08BF0024BEF1806FA8BFA1F1C041F3
:101C4000BDE8704080F282804FF0000001F1C04199
:101C500001F0004170479EEA0C0F0CEA131518BF03
:101C600095EA0C0F06D04FF0000081EA030E0EF04B
:101C7000004170BD00F01CF88900013E00F007B87B
:101C800000F009B84FEA430C5FEA5C5C08D081EAD7
:101C9000030100F05BB84FEA410C5FEA5C5CF6D1EF
:101CA0004FF00000014970470000FF070000F87F77
:101CB0000EF1020E2EF0030E5EF8046B364205D4D0
:101CC000012A43EB030515F5001F12D8012841EB4B
:101CD000010C1CF5001F0CD80ED14FEAD17C15F574
:101CE000001F0CEB4C0C0CF1020C08BF4CEBD37C2E
:101CF00004E04FF0080C01E04FEAD37C0CEB4C05FC
:101D000026FA05F606F00706B6F1040C06D20EEB2D
:101D1000860CBDE870404CF0010C6047DFE80CF029
:101D2000090B02024FF000414FF00000A1F5002125
:101D300070BD19461046012851EB010418BFD4F5B7
:101D4000001484BF002001F0004170BD0808A0F518
:101D500000114FEA3101704753EA010C17D41CF50A
:101D6000801F58BFBCF5801F00F106808B4218BF52
:101D7000704708BF8242704707D713F5801F58BFCE
:101D800011F5801F19D48B4270479B4270471CF598
:101D9000801F08D5BCF5801FF7D5994218BF704742
:101DA00008BF904270474FF4001C1CEB430F38BF34
:101DB0001CEB410F01D2994270470FB40CBC03BC1D
:101DC000FFF7C1BE10B591EA030F48BF83F000438F
:101DD0003FF5ACAD841A71EB030C07D212198CF0ED
:101DE000004C43EB0C03001B61EB0C01DFF8A4E19A
:101DF0004FEA1154A4EB135C1EEA430F18BF9EEA8E
:101E0000445F00F0B08023EA6E03524221EA04519D
:101E1000C3EB6E0338BF5B1EDCF1200E25D322FA24
:101E20000CFE10EB0E0043FA0CFE41EB0E01CCF160
:101E3000200E03FA0EFE10EB0E0051F10001CCF162
:101E4000200E29D412FA0EF201EB0451BDE8104025
:101E500058BF7047401C1CBFB2F1004F70470028AC
:101E60000CBF491C20F00100704712EB020E43EB3F
:101E7000030218BF4FF0010E4EEA4202ACF1200CF3
:101E8000DCF11E0E54D943FA0CFE10EB0E0051F19A
:101E9000FF31CCF11E0ED5D50EF1010E12FA0EFE59
:101EA000404141EB010101EB445C5FEA5C5C10D90D
:101EB00010EBDE7001EB045138BFBEF1004FBDE8FE
:101EC000104018BF704700280CBF491C20F00100CB
:101ED000704730D24FEAD42C11F5001124F400647D
:101EE0001BD0B1FA81F20B3AA41AA41ED2F120033E
:101EF000914030FA03F31943904001EBCC71002C70
:101F000001EB0451BDE81040A8BF704701F1C0418A
:101F10004FF0000001F000417047B0FA80F310FA72
:101F200003F100D110BDE41A173C4805C90AE4E7E3
:101F300001EB045110BD491001EB0451BDE8104004
:101F40004FEA300002E04FF0000170474A0008BF3E
:101F50000042F8D0B2F5001F28BF704701F00041E1
:101F60004FF0000070479EEA445F07D011EA5E0F11
:101F7000BDE8104004BF002100207047BDE81040BC
:101F800070B5FFF795FE00BF40DFF63E83F00041DD
:101F9000104670470000E0FF43004FEAD30C4FEAC1
:101FA0003C0C43401FBF40070CF1605113F0FE4F43
:101FB00070471CF0006F03D100200CF00041704707
:101FC0000CF0004343EA507010B540EACC0000F03A
:101FD0000EF800BF000000924FEA0001FFF7B6BE06
:101FE0004FF000414FF00000A1F5002170470EF1C5
:101FF000020E2EF0030E5EF8044B244204D44FEA86
:102000004102B2F17F4F11D84FEA4003B3F17F4F45
:102010000CD80ED14FEAD07CB2F17F4F0CEB4C0CB8
:102020000CF1020C08BF4CEBD17C04E04FF0080C23
:1020300001E04FEAD17C0CEB4C0324FA03F404F0EA
:102040000704B4F1040C06D20EEB840CBDE810407A
:102050004CF0010C6047DFE80CF0070802024FF07B
:102060000040A0F5800010BD0846420018BFD2F124
:10207000807288BF00F0004010BD4FF04070E1EE6C
:10208000100A7047FF2141EAD050C0057047000098
:10209000B02000080000002084000000C4010008F7
:1020A0003421000884000020D4060000E00100086C
:1020B0000000000000000000000000000000000020
:1020C0000000000000000000000000000000000010
:1020D0000000000000000000000000000000000000
:1020E00000000000030000000400000005000000E4
:1020F000060000000C0000000000000000000000CE
:1021000000000000FFFFFFFFFFFFFFFF00000000D7
:10211000000000000102030401020304060708098D
:10212000007A030A0000000000000000010203041E
:04213000060708098D
:0400000508000229C4
:00000001FF
