:020000040800F2
:100000008806002029020008310200083302000897
:10001000350200083702000839020008000000001D
:100020000000000000000000000000003B0200088B
:100030003D020008000000003F02000841020008E5
:10004000430200084302000843020008430200087C
:100050004302000843020008E502000843020008CA
:10006000430200084302000843020008430200085C
:10007000430200084302000843020008430200084C
:10008000430200084302000843020008430200083C
:10009000430200084302000843020008430200082C
:1000A000430200084302000843020008430200081C
:1000B000D507000843020008430200084302000875
:1000C00043020008430200084302000843020008FC
:1000D00043020008430200084302000843020008EC
:1000E00043020008430200084302000843020008DC
:1000F00043020008430200084302000843020008CC
:1001000043020008430200084302000843020008BB
:1001100043020008430200084302000843020008AB
:10012000430200084302000843020008430200089B
:10013000430200084302000843020008430200088B
:10014000430200084302000843020008430200087B
:10015000430200084302000843020008430200086B
:10016000430200084302000843020008430200085B
:10017000430200084302000843020008430200084B
:10018000430200084302000800F002F800F03CF8C7
:100190000AA090E8000C82448344AAF10107DA45E2
:1001A00001D100F031F8AFF2090EBAE80F0013F0F8
:1001B000010F18BFFB1A43F0010318476007000046
:1001C00080070000103A24BF78C878C1FAD85207D7
:1001D00024BF30C830C144BF04680C6070470000C1
:1001E0000023002400250026103A28BF78C1FBD840
:1001F000520728BF30C148BF0B6070471FB500F0E1
:1002000087FB1FBD10B510BD00F031F81146FFF798
:10021000F5FF00F05DFB00F04FF803B4FFF7F2FFCD
:1002200003BC00F057F80000094880470948004720
:10023000FEE7FEE7FEE7FEE7FEE7FEE7FEE7FEE796
:10024000FEE7FEE704480549054A064B70470000F3
:100250006D0700088901000888000020880600203A
:10026000880200208802002070477047704775465A
:1002700000F02CF8AE4605006946534620F0070012
:10028000854618B020B5FFF7DDFFBDE820404FF0F0
:1002900000064FF000074FF000084FF0000B21F070
:1002A0000701AC46ACE8C009ACE8C009ACE8C0093D
:1002B000ACE8C0098D46704710B50446AFF3008026
:1002C0002046BDE81040FFF7A8BF00000048704777
:1002D0002400002001491820ABBEFEE726000200E2
:1002E0007047000010B5012000F012F838B14FF44B
:1002F0008051034800F0CAF8012000F003F810BD57
:10030000000C02400149086070470000143C0140A5
:1003100001460020034A12680A400AB1012000E0A9
:1003200000207047143C0140002123498279002AB3
:100330003AD00A46126803689A430B461A600A1DAF
:10034000126803689A430B1D1A60027911440A6807
:1003500003681A430A60184A0832126803689A430D
:10036000154B08331A601A1D126803689A43124B22
:100370000C331A604279102A0ED11A1F12680368D2
:100380001A430D4B08331A601A1D126803681A438A
:10039000094B0C331A600DE00749427911440A6891
:1003A00003681A430A6005E0027911440A68036889
:1003B0009A430A6070470000003C014010B50620D7
:1003C000054908700020487001208870C8700846F0
:1003D00000F0CAF810BD00001400002010B51C2069
:1003E000054908700020487001208870C8700846D0
:1003F00000F0BAF810BD000010000020F0B50A4669
:1004000000210023002400BF3DE0012505FA01F38F
:10041000156805EA03049C4234D105684F000326A1
:10042000BE40B543056015794E00B54006683543BA
:1004300005601579012D02D01579022D16D1856838
:100440004F000326BE40B543856055794E00B54048
:10045000866835438560456801268E40B543456012
:10046000456896798E40B6B235434560C5684F0001
:100470000326BE40B543C560D5794E00B540C66879
:100480003543C560491C1029BFD3F0BD42694A40BD
:100490004261704710B50121084600F0A1F8002024
:1004A000064908718871012008600220C871032084
:1004B00048710348FFF7A2FF10BD000000000020B4
:1004C0000000024010B50121880300F0A9F80021C6
:1004D000084600F0B5F80120054908608871002041
:1004E0000871082048710846FFF71EFF10BD000084
:1004F0000800002010B50121082000F071F84FF429
:100500007040064908600120087100208871C87198
:10051000032048710248FFF771FF10BD0000002062
:10052000000C024010B50121084600F069F8532084
:100530000B490880002048800A4848600020088154
:1005400088724FF0804000F081F90121880700F0A7
:1005500056F901221146900700F06EF910BD000017
:10056000180000209F86010070B5002100230F2293
:10057000C4781CB3174C246804F4E064C4F5E06448
:10058000C4F30721C1F10404E3B20A4144789C405A
:10059000E1B28478144021430C07210E0E4C0578FB
:1005A0006155047804F01F050124AC4005786D11F5
:1005B000AD0005F1E025C5F8004109E0047804F03C
:1005C0001F050124AC40054D0678761145F82640FC
:1005D00070BD00000CED00E000E400E080E100E010
:1005E00029B1064A12680243044B1A6004E0034A28
:1005F00012688243014B1A60704700003038024095
:1006000029B1064A12680243044B1A6004E0034A07
:1006100012688243014B1A60704700004038024064
:1006200029B1064A12680243044B1A6004E0034AE7
:1006300012688243014B1A60704700004438024040
:1006400030B500228B071C0F0F2303FA04F20B4B6B
:100650008C1053F824309343084C8D1044F8253007
:1006600023468C1053F824308C07240F00FA04F42E
:100670002343024C8D1044F8253030BD083801402A
:100680000CB50020019000903448006840F48030A0
:100690003249086000BF3148006800F40030009023
:1006A0000198401C0190009818B90198B0F5A04F2E
:1006B000F1D12A48006800F4003010B10120009008
:1006C00001E0002000900098012846D123484030E6
:1006D000006840F08050214940310860204800689F
:1006E00040F440401E4908601C48083000681B491F
:1006F000083108600846006840F400400860084679
:10070000006840F4A05008601648091F0860081FE0
:10071000006840F08070091F086000BF0F48006843
:1007200000F000700028F9D040F205700E49086012
:100730000A480830006820F00300084908310860C2
:100740000846006840F00200086000BF0348083017
:10075000006800F00C000828F8D10CBD00380240F9
:100760000070004019544007003C024010B5154885
:10077000006840F47000134908601348006840F0B6
:1007800001001149086000200F49083108600E4837
:1007900000680E4908400C4908600D48091D0860B2
:1007A000081F006820F48020091F08600020064907
:1007B0000C310860FFF764FF4FF000600149803999
:1007C000086010BD88ED00E000380240FFFFF6FE33
:1007D0001030002410B50121880700F01CF840B14A
:1007E0000121880700F008F84FF400410148FFF7A5
:1007F0004DFE10BD000C0240CA430282704721B179
:10080000028842F00102028004E002884FF6FE7383
:100810001A400280704730B50246002000230024B1
:10082000158A05EA0103958905EA010413B10CB1A3
:10083000012000E0002030BD1AB183890B43838181
:1008400002E083898B438381704700000022028885
:10085000184B98420ED0184B98420BD0B0F1804FF5
:1008600008D0164B984205D0154B984202D0154B34
:10087000984204D14FF68F731A404B881A43124B9B
:10088000984207D0114B984204D04FF6FF431A40CC
:100890000B891A4302804B68C3620B880385054BA2
:1008A000984202D0044B984201D18B7A03860123EF
:1008B00083827047000001400004014000040040B2
:1008C00000080040000C00400010004000140040F0
:1008D000FFF710FEFFF726FEFFF780FDFFF7DAFDBA
:1008E000FFF7F0FDFFF76AFD0CE0002400BF00E019
:1008F000641C05488442FBDB4FF400510348FFF7BA
:10090000C5FD00BFF1E7000040420F00000C0240AF
:100910004FF04070E1EE100A704700003C090008FB
:100920000000002018000000C4010008540900085D
:100930001800002070060000E00100080000000020
:1009400000000000000000000000000000000000A7
:0409500000000000A3
:0400000508000229C4
:00000001FF
