:020000040800F2
:100000008806002029020008B3030008AB0300089B
:10001000AF030008E30200085105000800000000DB
:10002000000000000000000000000000D9030008EC
:10003000E702000800000000B5030008C90400083A
:10004000430200084302000843020008430200087C
:10005000430200084302000843020008430200086C
:10006000430200084302000843020008430200085C
:10007000430200084302000843020008430200084C
:10008000430200084302000843020008430200083C
:10009000430200084302000843020008430200082C
:1000A0004302000843020008430200084905000813
:1000B0004B0500084D0500084F05000843020008E5
:1000C00043020008430200084302000843020008FC
:1000D00043020008430200084302000843020008EC
:1000E00043020008430200084302000843020008DC
:1000F00043020008430200084302000843020008CC
:1001000043020008430200084302000843020008BB
:1001100043020008430200084302000843020008AB
:10012000430200084302000843020008430200089B
:10013000430200084302000843020008430200088B
:10014000430200084302000843020008430200087B
:10015000430200084302000843020008430200086B
:10016000430200084302000843020008430200085B
:10017000430200084302000843020008430200084B
:10018000430200084302000800F002F800F03CF8C7
:100190000AA090E8000C82448344AAF10107DA45E2
:1001A00001D100F031F8AFF2090EBAE80F0013F0F8
:1001B000010F18BFFB1A43F001031847380600006F
:1001C00058060000103A24BF78C878C1FAD8520700
:1001D00024BF30C830C144BF04680C6070470000C1
:1001E0000023002400250026103A28BF78C1FBD840
:1001F000520728BF30C148BF0B6070471FB500F0E1
:10020000F3FA1FBD10B510BD00F031F81146FFF72D
:10021000F5FF00F09FF900F04FF803B4FFF7F2FF8D
:1002200003BC00F057F80000094880470948004720
:10023000FEE7FEE7FEE7FEE7FEE7FEE7FEE7FEE796
:10024000FEE7FEE704480549054A064B70470000F3
:10025000E1040008890100088800002088060020C9
:10026000880200208802002070477047704775465A
:1002700000F02CF8AE4605006946534620F0070012
:10028000854618B020B5FFF7DDFFBDE820404FF0F0
:1002900000064FF000074FF000084FF0000B21F070
:1002A0000701AC46ACE8C009ACE8C009ACE8C0093D
:1002B000ACE8C0098D46704710B50446AFF3008026
:1002C0002046BDE81040FFF7A8BF00000048704777
:1002D0002400002001491820ABBEFEE726000200E2
:1002E000704700BFFEE7704701B5044900980860F9
:1002F00000BF024800680028FBD108BD00000020B4
:10030000F0B50A4600210023002400BF3DE001258E
:1003100005FA01F3156805EA03049C4234D1056827
:100320004F000326BE40B543056015794E00B54029
:100330000668354305601579012D02D01579022D27
:1003400016D185684F000326BE40B54385605579B8
:100350004E00B540866835438560456801268E406D
:10036000B5434560456896798E40B6B235434560E1
:10037000C5684F000326BE40B543C560D5794E0021
:10038000B540C6683543C560491C1029BFD3F0BDD0
:100390000246002013690B400BB1012000E0002051
:1003A0007047418370470183704700BFFEE700BF7D
:1003B000FEE770477047000029B1064A1268024301
:1003C000044B1A6004E0034A12688243014B1A602E
:1003D0007047000030380240704700000CB5002024
:1003E000019000903448006840F480303249086041
:1003F00000BF3148006800F4003000900198401CB4
:100400000190009818B90198B0F5A04FF1D12A4891
:10041000006800F4003010B10120009001E00020DD
:1004200000900098012846D123484030006840F0F1
:1004300080502149403108602048006840F4404025
:100440001E4908601C48083000681B4908310860D4
:100450000846006840F4004008600846006840F420
:10046000A05008601648091F0860081F006840F087
:100470008070091F086000BF0F48006800F000701E
:100480000028F9D040F205700E4908600A4808308B
:10049000006820F003000849083108600846006839
:1004A00040F00200086000BF03480830006800F018
:1004B0000C000828F8D10CBD003802400070004044
:1004C00019544007003C02400448006820B103482A
:1004D0000068401E014908607047000000000020CD
:1004E00010B51548006840F47000134908601348BF
:1004F000006840F001001149086000200F490831F0
:1005000008600E4800680E4908400C4908600D4814
:10051000091D0860081F006820F48020091F08607A
:10052000002006490C310860FFF758FF4FF00060CB
:1005300001498039086010BD88ED00E000380240B4
:10054000FFFFF6FE10300024704770477047704779
:1005500000BFFEE786B04FF0000A0027002003909E
:1005600080460A20029000264FF0000900200190EA
:10057000984800684FF47A72B0FBF2F1481EB0F16F
:10058000807F00D320E0481E4FF0E02250615017DA
:100590000F22002806DB13074FEA136C8E4B03F87B
:1005A00000C009E013074FEA136B8C4B00F00F0CEF
:1005B000ACF1040C03F80CB000BF00204FF0E022B7
:1005C00090610720106100BF01210820FFF7F4FEB1
:1005D00001210846FFF7F0FE01208DF814000020ED
:1005E0008DF816008DF817004FF47040049003202A
:1005F0008DF8150004A97A48FFF782FE00208DF8D7
:1006000014008DF816000120049002208DF81700C8
:1006100003208DF8150004A97248FFF771FE4FF40E
:1006200080516F48FFF7BFFE0C24D1E001216D48D7
:10063000FFF7AEFE054609F101001FFA80F9B9F592
:100640007A7F07D1701C10B90026012001904FF06D
:100650000009761C554502D0012D01D1B7B2B6E094
:10066000002DFCD1B0B203900198012807D1C7F149
:10067000FF3030441FFA80F80020019003E0039817
:10068000C01B1FFA80F8B8F5FA6F39DA0C2C0BD1C1
:100690004FF400515248FFF786FE4FF48051504806
:1006A000FFF77FFE0D2428E00D2C0BD14FF4804185
:1006B0004B48FFF778FE4FF400514948FFF771FEB1
:1006C0000E241AE00E2C0BD14FF400414448FFF7E2
:1006D0006AFE4FF480414248FFF763FE0F240CE0AE
:1006E0000F2C0AD14FF480513D48FFF75CFE4FF4C8
:1006F00000413B48FFF755FE0C246420FFF7F4FD52
:10070000B8F5FA6F63DB4FF0000B57E00121354875
:10071000FFF73EFE0546012D01D14FF0000B0C2CDA
:1007200010D14FF480512E48FFF73DFEA620FFF771
:10073000DBFD4FF480512A48FFF733FEA620FFF778
:10074000D3FD37E00D2C10D14FF400512448FFF7B2
:100750002AFEA620FFF7C8FD4FF400512048FFF7FE
:1007600020FEA620FFF7C0FD24E00E2C10D14FF490
:1007700080411B48FFF717FEA620FFF7B5FD4FF499
:1007800080411748FFF70DFEA620FFF7ADFD11E0F1
:100790000F2C0FD14FF400411148FFF704FEA620A3
:1007A000FFF7A2FD4FF400410D48FFF7FAFDA62028
:1007B000FFF79AFD0BF1010000F0FF0B0298834553
:1007C000A4D14FF480510648FFF7EDFD00BFAA46C3
:1007D0002CE700001000002000E400E018ED00E02D
:1007E000000C0240000002404FF04070E1EE100AA1
:1007F00070470000140800080000002024000000DA
:10080000C401000838080008240000206406000025
:10081000E0010008000000000000000000000000EF
:1008200000000000007A030A000000000000000041
:08083000010203040607080998
:0400000508000229C4
:00000001FF
