:020000040800F2
:100000009836012021030008051300080713000893
:100010000B1300080F130008131300080000000062
:10002000000000000000000000000000690200085D
:100030001713000800000000BD020008E943000893
:100040003B0300083B0300083B0300083B03000898
:100050003B0300083B030008690B00083B03000852
:100060003B0300083B0300083B0300083B03000878
:100070003B0300083B0300083B0300083B03000868
:100080003B0300083B0300083B0300083B03000858
:100090003B0300083B0300083B0300083B03000848
:1000A0003B0300083B0300083B0300083B03000838
:1000B0003B0300083B0300083B0300083B03000828
:1000C0003B0300083B0300083B0300083B03000818
:1000D0003B0300083B0300083B0300083B03000808
:1000E0003B0300083B0300083B0300083B030008F8
:1000F0003B0300083B0300083B0300083B030008E8
:100100003B0300083B0300083B0300083B030008D7
:100110003B0300083B0300083B0300083B030008C7
:100120003B0300083B0300083B0300083B030008B7
:100130003B0300083B0300083B0300083B030008A7
:100140003B0300083B0300083B0300083B03000897
:100150003B0300083B0300083B0300083B03000887
:100160003B0300083B0300083B0300083B03000877
:100170003B0300083B0300083B0300083B03000867
:100180003B0300083B03000800F002F800F05CF8B5
:100190000AA090E8000C82448344AAF10107DA45E2
:1001A00001D100F051F8AFF2090EBAE80F0013F0D8
:1001B000010F18BFFB1A43F001031847AC5E0000A3
:1001C000CC5E00000A444FF0000C10F8013B13F025
:1001D000070408BF10F8014B1D1108BF10F8015BA0
:1001E000641E05D010F8016B641E01F8016BF9D193
:1001F00013F0080F1EBF10F8014BAD1C0C1B09D1EA
:100200006D1E58BF01F801CBFAD505E014F8016B5B
:1002100001F8016B6D1EF9D59142D6D370470000ED
:100220000023002400250026103A28BF78C1FBD8FF
:10023000520728BF30C148BF0B6070471FB505F09B
:10024000EEFE1FBD10B510BD05F0AFFE1146FFF765
:10025000F5FF00F0FBFC05F0CDFE03B4FFF7F2FF65
:1002600003BC05F0D5FE00002A4B19680868B0E809
:10027000F04F80F30988BFF36F8F4FF0000080F3D9
:10028000118870470000000006480068006880F38D
:10029000088862B661B6BFF34F8FBFF36F8F00DF80
:1002A00000BF00BF08ED00E0DFF80C00016841F47A
:1002B00070010160704700BF88ED00E0EFF3098036
:1002C000BFF36F8F134B1A681EF0100F08BF20ED9D
:1002D000108A20E9F04F106008B44FF0500080F30E
:1002E0001188BFF34F8FBFF36F8F02F0FEFC4FF00A
:1002F000000080F3118808BC19680868B0E8F04F66
:100300001EF0100F08BFB0EC108A80F30988BFF30D
:100310006F8F7047CC000020EFF30580704700001E
:100320000948804709480047FEE7FEE7FEE7FEE789
:10033000FEE7FEE7FEE7FEE7FEE7FEE704480549C5
:10034000054A064B704700003D040008890100087B
:1003500098300120983601209832012098320120EF
:100360000CB50020019000907648006840F4803081
:100370007449086000BF7348006800F400300090C2
:100380000198401C0190009818B90198B0F5A04F51
:10039000F1D16C48006800F4003010B101200090E9
:1003A00001E0002000900098012846D165484030C7
:1003B000006840F08050634940310860624800683E
:1003C00040F44040604908605E48083000685D497C
:1003D000083108600846006840F40040086008469C
:1003E000006840F4A05008605848091F0860081FC2
:1003F000006840F08070091F086000BF5148006825
:1004000000F000700028F9D040F2057050490860F3
:100410004C480830006820F003004A490831086061
:100420000846006840F00200086000BF45480830F8
:10043000006800F00C000828F8D10CBD10B5454844
:10044000006840F47000434908603E48006840F08E
:1004500001003C49086000203A49083108603948E9
:1004600000683D490840374908603C48091D08605C
:10047000081F006820F48020091F0860002031490F
:100480000C310860FFF76CFF4FF000603149803994
:10049000086010BD70B50020002202230024022154
:1004A000284D08352D6805F00C0020B1042806D031
:1004B000082834D107E02A4D2A4E356033E02A4D12
:1004C000284E35602FE01F4D2D1D2D68C5F380543B
:1004D0001C4D2D1D2D6805F03F0154B1224DB5FB7B
:1004E000F1F5184E361D3668C6F3881605FB06F280
:1004F00009E01B4DB5FBF1F5124E361D3668C6F30B
:10050000881605FB06F20F4D2D1D2D68C5F301451C
:100510006D1C6B00B2FBF3F5124E356003E0104D1D
:10052000104E356000BF00BF064D08352D68C5F37D
:1005300003150E4E705D0B4D2D68C540094E35609C
:1005400070BD0000003802400070004008544007B1
:10055000003C024088ED00E0FFFFF6FE1030002472
:100560000024F4000000002000127A0004000020A3
:100570001FB5684604F0A1FDFB490198B0FBF1F0FE
:10058000FA4908601FBD4FF47A714143F74A126877
:100590005143A1F10A0000BF011EA0F10100FBD1EF
:1005A000704700BF00230A221946F148006801F095
:1005B0005AFB0128F6D14FF4FA7002F066FAED48C2
:1005C0000068022815D10120EB49EC4A126841F875
:1005D0002200EB480068401CE9490860E949E74A05
:1005E000126851F8220000231A46194601F002FA57
:1005F0000AE0E0480068012806D100231A4619469F
:10060000E148006801F0F6F90020DA490860C9E71E
:1006100000BF00230A221946DB48006801F023FBD3
:100620000128F6D10024D949D44A126811F82200D1
:1006300000F07BFDD1480068032803D10020CF499A
:10064000086004E0CD480068401CCC49086015E013
:10065000C948CA49096850F82100012806D1C7488D
:100660000068401CC5490860641C00E00424C348BD
:100670000068042802DB0020C0490860032CE7DB87
:10068000C249BE4A126811F8220000F046FDC0E7D8
:1006900088B0044600BFBB4900230A22C868194637
:1006A00001F0E1FA0128F6D12546202229466846C4
:1006B00005F0F5FB00260099C8B200F02EFD079862
:1006C000401E0790079820B90198079002200590D6
:1006D00001E0012005900498032806D100230A2296
:1006E0006946AB48006801F085F90498022806D1F4
:1006F00000230A226946A748006801F07BF90498A4
:10070000012806D100230A226946A348006801F0A7
:1007100071F94FF4FA70FFF736FF0099C8B200F094
:1007200004FD4FF4FA70FFF72EFF964900231A4696
:10073000C868194601F05EF9002001F076FFAAE7CB
:10074000054600BF8F4900230A22C868194601F0F8
:100750008AFA0128F6D12E463468904901EB4411FB
:10076000087800F0DAFC8D4800EB4410C069401EA8
:100770008A4901EB4411C861884800EB4410C06904
:1007800068B9864800EB44104068844901EB441185
:10079000C8610220814901EB4411486104E0012055
:1007A0007E4901EB441148614FF4FA70FFF7EBFE0C
:1007B0007A4901EB4411087800F0B7FC4FF4FA7065
:1007C000FFF7E1FE6F4900231A46C868194601F099
:1007D00011F9002001F029FFB4E79CB000BF00240C
:1007E000002500264FF47A77601E0390B8466549CD
:1007F00000230A22C868194601F035FA012878D189
:1008000067480068002875D118E000230A2214A95F
:100810006148006801F027FA62491798096891FB5E
:10082000F0F200FB121008B90120199000231A46BB
:1008300014A95948006801F0DDF8761C5A48006890
:100840008642E2DB002618E000230A220CA9514868
:10085000006801F008FA53490F98096891FBF0F21B
:1008600000FB121008B90120119000231A460CA9B0
:100870004848006801F0BEF8761C4C480068864283
:10088000E2DB002618E000230A2204A940480068A1
:1008900001F0E9F943490798096891FBF0F200FB80
:1008A000121008B90120099000231A4604A93848FB
:1008B000006801F09FF8761C3D4800688642E2DB44
:1008C00021E000230A2214A93148006801F0CBF985
:1008D000199801280FD10125002019903549096880
:1008E00014AB8222CDE9001033A1364801F04FFE4F
:1008F00008E038E190E000230A2214A924480068A7
:1009000001F078F8641C1DB9294800688442D8DBDE
:1009100035BB00241FE000230A220CA91D480068F3
:1009200001F0A1F9119801280DD1012500201190A5
:10093000204909680CAB8222CDE900101EA1214894
:1009400001F025FE06E000230A220CA911480068E8
:1009500001F050F8641C1DB9144800688442DADBC9
:10096000002D58D1002450E000093D0098000020DF
:100970009400002070000020A0020020440000200D
:100980006C000020F4020020900000204C000020A9
:10099000300000202C000020280000202002002031
:1009A00018000020A00000203400002038000020A3
:1009B0003C0000202400002042726577207461739F
:1009C0006B0000009106000800230A2204A9FE48DB
:1009D000006801F048F9099801280ED1012500208E
:1009E0000990FA49096804AB8222CDE90010AFF200
:1009F0003801F74801F0CBFD06E000230A2204A9E4
:100A0000F148006800F0F6FF641C002DA9D1F14800
:100A100000688442D8DB96E0EF480068012842D1A4
:100A2000002410E0ED4800EB4410C068EC49096870
:100A300091FBF0F200FB121020B90120E74901EB15
:100A400044114861641C042CECDB002411E0E348F1
:100A500000EB4410406901280AD1E04800EB441043
:100A60008068B84204DA0394DC4800EB44108768DD
:100A7000641C0DB9042CEADB0398401C002862D0EA
:100A800001250020D549039A01EB42114861CF4965
:100A9000096803AB8222CDE90010AFF2E401D1482E
:100AA00001F075FD4FE0CC48006802284BD10024CE
:100AB00010E0CA4800EB4410C068C949096891FBBE
:100AC000F0F200FB121020B90120C44901EB4411DF
:100AD0004861641C042CECDB00241CE0BF4800EBE4
:100AE00044104069012815D1BC4800EB44108068CF
:100AF000BA4901EB4411C969401A40450ADC039424
:100B0000B64800EB44108068B44901EB4411C96950
:100B1000A0EB0108641C0DB9042CDFDB0398401C1A
:100B200088B101250020AD49039A01EB42114861CB
:100B3000A649096803AB8222CDE90010AFF2881103
:100B4000A84801F024FDA84900231A46C8681946A0
:100B500000F050FF4FF47A7001F097FFA048006852
:100B6000401C9F4908603AE610B5012003F012FED0
:100B700018B300209D490860002211469C48006877
:100B800001F093FA012815D1002400E0641C994873
:100B90008442FBDB98480068401C974908609349F1
:100BA0009348006801F011FA90499448006801F0F8
:100BB0000CFA00BF012003F0F8FD10BD00B58BB0AA
:100BC0004FF410700990062204218D4803F007FFAE
:100BD00001208DF8280000208DF82A0002208DF8D1
:100BE00029004BF6803007904FF40070ADF81A00E2
:100BF000ADF814000020ADF81800ADF81600ADF8FF
:100C0000200005A97F4804F0D3FC01217D4804F0B1
:100C1000A0FD7D4801900020ADF808006320ADF8EC
:100C20000C004FF48060ADF80E000001ADF810002C
:100C30004BF6FF70ADF80A0001A9744803F031FFCC
:100C40000121724803F0A9FF0BB000BD1FB54FF49E
:100C50001070029006220421694803F0C0FE0120B2
:100C60008DF80C0000208DF80E0002208DF80D008C
:100C70000121082004F0F2FA654800684FF47A7206
:100C8000B0FBF2F1481EB0F1807F00D31BE0481E9C
:100C90004FF0E022506150170F22002807DA1307A7
:100CA0001D0E5C4B00F00F04241F1D5503E01307BD
:100CB0001C0E594B1C5400BF00204FF0E0229061E5
:100CC0000720106100BF02A9544803F0FDFD012177
:100CD000042004F0C3FA00F01FFB4FF4407003F04F
:100CE00075FC012000F0FAF9002000F0F7F903206C
:100CF00000F0F4F9022000F0F1F90121002000F0E9
:100D000029FAFFF735FC01204549086003204860B7
:100D1000052088601420C860032008610020414934
:100D20000860042048600A2088601E20C8600120F6
:100D3000086103203C490860042048600A2088605C
:100D40002820C860022008613849086006204860F1
:100D50000F2088602820C8600220086114223049D2
:100D6000334805F09CF80120314948610020886132
:100D70000320C86114222B492E4805F090F8012069
:100D80002C494861002088610420C861142226494A
:100D9000294805F084F8012027494861002088612E
:100DA0000420C86114222149244805F078F8012064
:100DB00022494861002088610620C8610022202164
:100DC000042000F05FFD3BE028000020240000200C
:100DD00091060008340000201800002020020020A6
:100DE000A000002041070008F4020020A400002019
:100DF0008C000020808D5B0070000020940000209B
:100E000000000240003C0040A08601000054004069
:100E10000000002018ED00E000E400E0000C0240BB
:100E20005001002064010020780100208C01002086
:100E3000A0010020C0010020E001002000020020ED
:100E40008649086000222021042000F01BFD84490F
:100E5000086000222021042000F014FD8149086070
:100E600020228149814805F01AF8202280497F48D4
:100E7000203005F014F820227E497C48403005F0EF
:100E80000EF820227C497948603005F008F800BF50
:100E900000231A4674497348006800F0ABFD00BF98
:100EA00000231A4672496D48006800F0A3FD00BF98
:100EB00000231A466F496A48006800F09BFD00BF96
:100EC00000231A466C496648006800F093FD6B48A1
:100ED0000068012803D14FF47A7069490860002046
:100EE000012103468222CDE9001066A1674801F086
:100EF0004EFB00206649096803468222CDE90010B6
:100F000064A1674801F043FB0020012103468222CF
:100F1000CDE9001063A1674801F039FB03220021ED
:100F2000012000F0AFFC6449086003220021012089
:100F300000F0A8FC6149086003220021012000F0B4
:100F4000A1FC5F49086003220021012000F09AFC07
:100F50005C49086003220021012000F093FC5949FC
:100F6000486003220021012000F08CFC5549886074
:100F700003220021012000F085FC5249C8600023B3
:100F80001A4619464C48006800F034FD4D490023CC
:100F90001A46C868194600F02DFD02F035F800BF6A
:100FA000FEE7F0EE400A9FED481AB0EE410A90F8D5
:100FB000401000EB8103C3ED000A002214E000F1B1
:100FC000200303EB8203D3ED001A8B1803F0070311
:100FD00000EB830393ED002AB0EE401A01EE821A73
:100FE000B0EE410A531C9AB2082AE8DB4B1C99B2B6
:100FF00001F0070180F840107047002280F840207F
:10100000002107E09FED300A00EB810282ED000A2B
:101010004A1CD1B20829F5DB9FED2C0A80ED080AA5
:101020009FED2B0A80ED090A9FED2A0A80ED0A0A3E
:101030009FED290A80ED0B0A9FED270A80ED0C0A2F
:101040009FED240A80ED0D0A9FED210A80ED0E0A26
:101050009FED1E0A80ED0F0A704700002800002057
:101060002C00002030000020A001002020020020E1
:10107000C0010020E0010020000200201800002034
:101080009C000020427574746F6E00001106000809
:10109000200000205363686564756C657200000071
:1010A000DB070008446F75626C6520436C69636BF5
:1010B00000000000A30500088C0000209000002024
:1010C00094000020F4020020000000000AD7233C16
:1010D000CDCC4C3D8FC2F53D0AD7A33E1CB504468E
:1010E000724951F82400012104F0B8F8704830F832
:1010F0001400009001208DF8040000208DF80600F7
:1011000001208DF8070002208DF80500694951F88B
:101110002400694603F0D8FB1CBD654931F8101066
:10112000644A52F8202011837047614931F8101049
:10113000604A52F82020518370475E4951F82010D0
:1011400049695B4A32F8102051405A4A52F820202F
:101150005161704730B585B004460D46564951F887
:101160002400012104F07AF80121880304F0D0F86A
:1011700000208DF810008DF81300504830F814004E
:1011800003904F4951F8240003A903F09DFB012D62
:1011900024D14C4A115D4C4A105D04F0D8FB4B48F9
:1011A00030F81400019000208DF8080008208DF818
:1011B000090001208DF80A0001A803F085FA4448CF
:1011C000005D8DF800000F208DF801008DF8020001
:1011D00001208DF80300684603F0FDF905B030BD2D
:1011E00010B50446354A32F81410354A52F8240036
:1011F00003F0CCFB10BD7CB504460D46354951F8D3
:101200002410354A52F8242041EA0200012104F05A
:1012100025F82CB9314951F82400012104F067F870
:101220002F4B13F814202F4B33F814102E4B53F878
:10123000240003F0D4FB2D4B13F814202C4B33F86F
:1012400014102C4B53F8240003F0C9FB00208DF838
:10125000060001208DF8070002208DF804002648C2
:1012600030F81400009002208DF805001E4951F856
:101270002400694603F028FB02208DF804001F4873
:1012800030F8140000901B4951F82400694603F01F
:101290001BFB1B4951F82400294604F0F8FB1849B0
:1012A00051F82400012104F07AFC7CBD3060000874
:1012B00028600008A8000020446000084060000882
:1012C000B80000204B6000084A6000084860000831
:1012D0004C60000854600008586000085060000826
:1012E0006460000860600008C400002066600008B8
:1012F00062600008C80000205C6000085E600008B2
:10130000C0000020704700BFFEE700BFFEE700BF3F
:10131000FEE700BFFEE7704700B58BB009A803F0F9
:101320001BFB1020099001208DF8280002208DF869
:101330002B0000208DF82A0002208DF829000121C1
:101340000B2003F08BFF09A9EF4803F0BDFA022040
:101350008DF8280001208DF82A004FF410700990B4
:1013600000208DF82B0002208DF8290009A9E748FC
:1013700003F0AAFA04220621E44803F030FB042219
:101380000921E24803F02BFB01214FF4021003F086
:10139000AEFF012003F033FE00208DF82A004FF449
:1013A000A450099009A9DA4803F08EFA1020099098
:1013B00009A9D84803F088FA06220421D54803F089
:1013C0000EFB06220721D24803F009FB06220A2160
:1013D000CF4803F004FB06220C21CD4803F0FFFAAE
:1013E0001021C94803F0EEFACB4804F077F84BF629
:1013F000803007904FF40070ADF81A000020ADF86F
:1014000018004FF40070ADF814000020ADF816007D
:10141000ADF8200005A9C04804F0CAF8BF4803F0A1
:1014200017FBBF4801900020ADF808003320ADF84D
:101430000C004FF48060ADF80E000001ADF8100014
:101440004BF6FF70ADF80A000121B44803F0A5FB8C
:1014500001A9B24803F025FB0BB000BD70B50546ED
:101460000E46002400BF4FF40031AC4803F0D2FC1C
:101470000028F8D10121A94803F0B2FB00BFA94917
:10148000A64803F0C7FC0028F9D000229421A34805
:1014900003F0BEFB00BFA449A04803F099FC00285C
:1014A000F9D00DE0295D9D4803F036FC601CC4B204
:1014B00000BF9D49891E994803F08AFC0028F8D096
:1014C000B442EFDB00BF9749C91C944803F0A2FC6B
:1014D0000028F8D00121914803F08EFB70BD70B553
:1014E0000446002500BF4FF400318C4803F092FC05
:1014F0000028F8D10121894803F072FB00BF894917
:10150000864803F087FC0028F9D000229421834804
:1015100003F07EFB00BF8449804803F059FC00289B
:10152000F9D021467D4803F0F7FB00BF7E49891EB4
:101530007A4803F04DFC0028F8D00121774803F0E9
:101540005BFB00BF4FF40031744803F063FC0028DC
:10155000F8D10021714803F063FB01216F4803F0CB
:101560003FFB00BF6F496D4803F054FC0028F9D0E1
:1015700001229421694803F04BFB00BF6B49674887
:1015800003F026FC0028F9D000BF68493E316348CB
:1015900003F01EFC0028F8D0604803F0BFFB0546AE
:1015A00001215E4803F028FB284670BD7CB5FF246E
:1015B0001021554803F004FA5D4D00E06D1E002D2A
:1015C000FCD10D208DF8000001208DF801000221D2
:1015D0006846FFF743FF00208DF8000099208DF842
:1015E000010002216846FFF739FF47208DF800000F
:1015F00080208DF8010002216846FFF72FFF32207E
:10160000FFF76DFF044632208DF8000044F08000A3
:101610008DF8010002216846FFF720FF3220FFF716
:101620005EFF044632208DF8000024F080008DF823
:10163000010002216846FFF711FF00208DF800002D
:101640008DF8010002216846FFF708FF04208DF89D
:101650000000AF208DF8010002216846FFF7FEFE72
:101660000D208DF8000070208DF8010002216846E1
:10167000FFF7F4FE05208DF8000081208DF80100B1
:1016800002216846FFF7EAFE06208DF800000720D9
:101690008DF8010002216846FFF7E0FE0A208DF870
:1016A000000000208DF8010002216846FFF7D6FEF9
:1016B00027208DF8000000208DF8010002216846E7
:1016C000FFF7CCFE9A208DF800000A208DF801006B
:1016D0008DF8020003216846FFF7C0FE1F208DF839
:1016E00000000F208DF8010002216846FFF7B6FECA
:1016F00002208DF800009E208DF80100022168462E
:10170000FFF7ACFE7CBD0000000C0240000402406C
:101710000008024000000240003C0040005400402D
:10172000A0860100010000108200070002000300F3
:1017300040420F0000F1080141604FF0FF3181602D
:1017400000F10801C16001610021016070470021C2
:101750000161704742684A6093688B609368596082
:101760009160086103685B1C0360704710B5024616
:101770000B685C1C0CB9106907E002F1080000E07E
:101780004068446824689C42FAD944684C604C68BC
:10179000A160886041600A611468641C146010BD17
:1017A00001460A69D1E901309860D1E90103586026
:1017B0005068884201D18868506000200861106834
:1017C000401E10601068704770B505460E462C46E6
:1017D00054B900BF502080F31188BFF34F8FBFF37F
:1017E0006F8F00BF00BFFEE702F0BBFDD4E90F1210
:1017F000206801FB020060600020A0632068A060F8
:10180000E06B401E226C216800FB0210E060FF20AC
:1018100084F8440084F845009EB9206908B9012085
:1018200000E00020A8B904F1100001F0B0FD80B183
:101830004FF08050F8490860BFF34F8FBFF36F8FB0
:1018400007E004F11000FFF775FF04F12400FFF733
:1018500071FF02F0ADFD012070BD2DE9F04106469B
:101860000D4617469846069C0DB9246000E0276097
:10187000E663256401212046FFF7A6FF84F84C802B
:10188000BDE8F0812DE9F84305460E4690460DB1BE
:10189000012000E0002050B900BF502080F31188E3
:1018A000BFF34F8FBFF36F8F00BF00BFFEE70EB9CE
:1018B000002701E005FB06F707F1500002F007FEE4
:1018C000044644B104F1500943464A46314628468D
:1018D0000094FFF7C2FF2046BDE8F88370B50446C8
:1018E00002F03FFD94F9455010E0606A08B901200C
:1018F00000E0002038B904F1240001F048FD18B1DF
:1019000001F041FE00E003E0681E45B2002DECDC72
:1019100000BFFF2084F8450002F04AFD02F021FDDF
:1019200094F9445010E0206908B9012000E000203B
:1019300048B904F1100001F02AFD08B101F023FEBE
:10194000681E45B200E001E0002DECDC00BFFF2086
:1019500084F8440002F02CFD70BD70B5054602F01D
:1019600000FDA86BE96B884201D1012400E000244E
:1019700002F01EFD204670BD2DE9F04104460F46E1
:1019800015464FF00008A66B206C40B9206860BB7C
:10199000606801F068FE80460020606025E07DB947
:1019A0003946226CA06804F035FA216CA06808441E
:1019B000A060D4E90110884217D32068A06014E029
:1019C0003946226CE06804F025FA216CE068401A80
:1019D000E0602168E068884203D2216C6068401AA8
:1019E000E060022D01D106B1761E701CA063404656
:1019F000BDE8F0812DE9FF4383B0064688461D46C9
:101A00004FF00009344654B900BF502080F31188CC
:101A1000BFF34F8FBFF36F8F00BF00BFFEE7B8F17A
:101A2000000F01D1206C08B9012000E0002050B95E
:101A300000BF502080F31188BFF34F8FBFF36F8F2B
:101A400000BF00BFFEE7022D02D1E06B012801D1EB
:101A5000012000E0002050B900BF502080F3118821
:101A6000BFF34F8FBFF36F8F00BF00BFFEE701F0E2
:101A70009CFD08B9059808B9012000E0002050B984
:101A800000BF502080F31188BFF34F8FBFF36F8FDB
:101A900000BF00BFFEE700BF02F063FCA06BE16B7C
:101AA000884201D3022D28D12A4641462046FFF71D
:101AB00063FF0746606A08B9012000E0002068B9AA
:101AC00004F1240001F063FC88B14FF080505249CA
:101AD0000860BFF34F8FBFF36F8F08E03FB14FF047
:101AE00080504D490860BFF34F8FBFF36F8F02F0F6
:101AF0005FFC012007B0BDE8F083059818B902F03B
:101B000057FC0020F6E7B9F1000F04D101A801F05D
:101B1000CBFC4FF0010902F04BFC00F04CFF02F04F
:101B200020FC94F94400401C10B9002084F84400C3
:101B300094F94500401C10B9002084F8450002F0DB
:101B400037FC05A901A801F0DCFCF0B92046FFF73D
:101B500004FFA0B104F11000059901F0AEFB20468E
:101B6000FFF7BCFE00F079FE002895D14FF08050C1
:101B700029490860BFF34F8FBFF36F8F8CE7204672
:101B8000FFF7ACFE00F069FE86E72046FFF7A6FEF1
:101B900000F063FE0020ADE710B504464CB1002014
:101BA00060602060E06000231A4619462046FFF777
:101BB00021FF10BD2DE9F0410446012600272246F1
:101BC00000210120FFF75EFE05462846FFF7E4FFEF
:101BD0002846BDE8F08170B505462C4654B900BFD3
:101BE000502080F31188BFF34F8FBFF36F8F00BF7A
:101BF00000BFFEE701F0D6FC616888420ED1E068C4
:101C0000401EE060E06828B900231A4619462046C5
:101C1000FFF7F0FE012602E004ED00E0002630466A
:101C200070BD70B5054602F09CFBA86B08B9012495
:101C300000E0002402F0BCFB204670BD70B50446F5
:101C40000D46206C70B1216CE0680844E06061686A
:101C5000E068884201D32068E0602846226CE16891
:101C600004F0D8F870BD2DE9FF4782B005460E4656
:101C70001F464FF0000A2C4654B900BF502080F395
:101C80001188BFF34F8FBFF36F8F00BF00BFFEE718
:101C90000EB9206C08B9012000E0002050B900BF47
:101CA000502080F31188BFF34F8FBFF36F8F00BFB9
:101CB00000BFFEE701F079FC08B9049808B90120DB
:101CC00000E0002050B900BF502080F31188BFF31E
:101CD0004F8FBFF36F8F00BF00BFFEE700BF02F062
:101CE00040FBD4F83890B9F1000F3DD0D4F80C8007
:101CF00031462046FFF7A2FFDFB9A9F10100A0633A
:101D0000206810B901F019FD6060206908B9012050
:101D100000E0002010BB04F1100001F038FBE8B136
:101D20004FF08050FE490860BFF34F8FBFF36F8FB5
:101D300014E0C4F80C80606A08B9012000E00020BB
:101D400060B904F1240001F022FB38B14FF080505B
:101D5000F3490860BFF34F8FBFF36F8F02F028FB8A
:101D6000012006B0BDE8F087049818B902F020FB06
:101D70000020F6E7BAF1000F04D1684601F094FBA9
:101D80004FF0010A02F014FB00F015FE02F0E9FA30
:101D900094F94400401C10B9002084F8440094F9E0
:101DA0004500401C10B9002084F8450002F000FBFB
:101DB00004A9684601F0A5FB40BB2046FFF731FFB0
:101DC000F0B1206830B902F0CCFA606801F0F9FB9C
:101DD00002F0EEFA04F12400049901F06EFA2046B4
:101DE000FFF77CFD00F039FD00287FF478AF4FF05D
:101DF0008050CB490860BFF34F8FBFF36F8F6EE702
:101E00002046FFF76BFD00F028FD68E72046FFF74E
:101E100065FD00F022FD2046FFF703FF0028EED00D
:101E200000209EE72DE9F04106460F46344654B99E
:101E300000BF502080F31188BFF34F8FBFF36F8F27
:101E400000BF00BFFEE701F0ADFB6168884204D12E
:101E5000E068401CE06001250AE000233A4619468C
:101E60002046FFF700FF054615B1E068401CE06022
:101E70002846BDE8F08170B505460E460DB101203B
:101E800000E0002050B900BF502080F31188BFF35C
:101E90004F8FBFF36F8F00BF00BFFEE7AE4201D888
:101EA000012000E0002050B900BF502080F31188CD
:101EB000BFF34F8FBFF36F8F00BF00BFFEE702225B
:101EC00000212846FFF7DEFC044604B1A663204645
:101ED00070BD2DE9F05F07468A4690461E463C4697
:101EE00054B900BF502080F31188BFF34F8FBFF368
:101EF0006F8F00BF00BFFEE7BAF1000F01D1206C69
:101F000008B9012000E0002050B900BF502080F344
:101F10001188BFF34F8FBFF36F8F00BF00BFFEE785
:101F2000022E02D1E06B012801D1012000E0002047
:101F300050B900BF502080F31188BFF34F8FBFF31B
:101F40006F8F00BF00BFFEE702F066FA00BF5021AE
:101F5000EFF3118081F31188BFF34F8FBFF36F8FC1
:101F600000BF0546A06BE16B884201D3022E23D14E
:101F700094F945B0324651462046FFF7FDFC0BF17F
:101F8000010088B9606A08B9012000E0002080B92A
:101F900004F1240001F0FBF958B1B8F1000F08D0AA
:101FA0000120C8F8000004E00BF1010040B284F801
:101FB00045004FF0010901E04FF0000900BF85F333
:101FC000118800BF4846BDE8F09F2DE9F04706465E
:101FD0000F46344654B900BF502080F31188BFF338
:101FE0004F8FBFF36F8F00BF00BFFEE7206C08B9B3
:101FF000012000E0002050B900BF502080F311887C
:10200000BFF34F8FBFF36F8F00BF00BFFEE72068A5
:1020100008B9606808B9012000E0002050B900BF8D
:10202000502080F31188BFF34F8FBFF36F8F00BF35
:1020300000BFFEE702F0F0F900BF5021EFF311807E
:1020400081F31188BFF34F8FBFF36F8F00BF054639
:10205000D4F83890E06B48451ED994F945A009F1B1
:102060000100A0630AF1010070B9606A08B901209B
:1020700000E0002068B904F1240001F088F940B1C3
:102080003FB10120386004E00AF1010040B284F859
:1020900045004FF0010801E04FF0000800BF85F354
:1020A000118800BF4046BDE8F0872DE9F05F064685
:1020B00089461746344654B900BF502080F3118832
:1020C000BFF34F8FBFF36F8F00BF00BFFEE7B9F1C3
:1020D000000F01D1206C08B9012000E0002050B9A8
:1020E00000BF502080F31188BFF34F8FBFF36F8F75
:1020F00000BF00BFFEE702F08FF900BF5021EFF3F1
:10210000118081F31188BFF34F8FBFF36F8F00BF32
:102110000546D4F838A0BAF1000F26D002E000003E
:1021200004ED00E094F944B049462046FFF786FDEF
:10213000AAF10100A0630BF1010070B9206908B990
:10214000012000E0002068B904F1100001F01FF93F
:1021500040B13FB10120386004E00BF1010040B212
:1021600084F844004FF0010801E04FF0000800BF80
:1021700085F3118800BF4046BDE8F09F2DE9F04788
:1021800006468846344654B900BF502080F3118873
:10219000BFF34F8FBFF36F8F00BF00BFFEE7B8F1F3
:1021A000000F01D1206C08B9012000E0002050B9D7
:1021B00000BF502080F31188BFF34F8FBFF36F8FA4
:1021C00000BF00BFFEE7206C08B1012000E0002046
:1021D00050B900BF502080F31188BFF34F8FBFF379
:1021E0006F8F00BF00BFFEE702F016F900BF50215D
:1021F000EFF3118081F31188BFF34F8FBFF36F8F1F
:1022000000BF0546A06B48B1D4F80C90414620466B
:10221000FFF714FDC4F80C90012700E0002700BF71
:1022200085F3118800BF3846BDE8F08770B50446D5
:1022300054B900BF502080F31188BFF34F8FBFF314
:102240006F8F00BF00BFFEE702F08BF8A56B02F0B6
:10225000AFF8284670BD70B50446254655B900BF95
:10226000502080F31188BFF34F8FBFF36F8F00BFF3
:1022700000BFFEE702F075F8D5E90E10461A02F02D
:1022800097F8304670BD014651B900BF502282F325
:102290001188BFF34F8FBFF36F8F00BF00BFFEE702
:1022A000886B7047014600200EE0524A02EBC002E4
:1022B00052688A4207D100224E4B43F8302003EB8C
:1022C000C0035A6002E0401C0828EED300BF7047EC
:1022D00070B50446254655B900BF502080F31188DB
:1022E000BFF34F8FBFF36F8F00BF00BFFEE72846DD
:1022F000FFF7D8FF284602F03CF970BD0146886C14
:10230000704781647047014691F84C007047014660
:1023100051B900BF502282F31188BFF34F8FBFF332
:102320006F8F00BF00BFFEE78A6B0AB9012000E093
:1023300000207047014651B900BF502282F3118836
:10234000BFF34F8FBFF36F8F00BF00BFFEE78A6BF5
:10235000CB6B9A4201D1012000E000207047024679
:1023600000200BE0234B53F8303033B9214B43F8B6
:10237000301003EBC0035A6002E0401C0828F1D380
:1023800000BF70470246002000210AE0194B03EB12
:10239000C1035B68934203D1164B53F8310002E04E
:1023A000491C0829F2D300BF70472DE9F0410546CA
:1023B0000E4617462C4601F0D4FF94F94400401C09
:1023C00010B9002084F8440094F94500401C10B96D
:1023D000002084F8450001F0EBFFA06B28B93A46D5
:1023E000314604F1240000F0B4FF2046FFF776FAEE
:1023F000BDE8F0810403002010B5002407E004EBE1
:102400008401FC4A02EB8100FFF794F9641C052C5F
:10241000F5D3F948FFF78EF9F848FFF78BF9F8483C
:10242000FFF788F9F748FFF785F9F748FFF782F9D2
:10243000F148F6490860F148F549086010BD10B54B
:10244000044601F08EFFF3480068401CF149086023
:10245000F148006840B9F048046008460068012867
:102460000DD1FFF7C9FF0AE0EC48006838B9EA4827
:102470000068C06AE16A884201D8E7480460E84819
:102480000068401CE649086008460068206494F82B
:102490002C1001208840E34909680843E14908609D
:1024A000E16A01EB8101D34A02EB8100211DFFF7B4
:1024B00051F901F07DFFD948006868B1D64800683D
:1024C000C06AE16A884207D24FF08050D64908605E
:1024D000BFF34F8FBFF36F8F10BD2DE9F05F8246C2
:1024E0000F4690469B460A9E0C9C4FEA8801A52207
:1024F000206B03F006FDA8F10100216B01EB8009C0
:1025000029F0070909F0070008B9012000E00020C0
:1025100050B900BF502080F31188BFF34F8FBFF335
:102520006F8F00BF00BFFEE7002507E0795D04F173
:1025300034004155785D00B902E06D1C0A2DF5D3D9
:1025400000BF00213D200155052E00D30426E66280
:10255000A6640020E064201DFFF7F9F804F11800DC
:10256000FFF7F5F82461C6F10500A0616462002060
:10257000206584F854005A465146484601F02CFE26
:1025800020600B9808B10B980460BDE8F09F2DE91E
:10259000FF4F85B0804689461746DDE912ABB8008B
:1025A00001F095FF064656B1582001F090FF044611
:1025B0000CB1266304E0304601F0DBFF00E00024AC
:1025C0007CB10020CDE900ABCDE902403A46494656
:1025D0004046089BFFF781FF2046FFF730FF0125AB
:1025E00001E04FF0FF35284609B0BDE8F08F87497C
:1025F0000968096809B9012100E0002121B14FF003
:10260000FF318A4A116006E080490968C968C868D4
:10261000864A41681160704710B50446206B01F08E
:10262000A8FF204601F0A5FF10BD70B5054601F0DA
:1026300098FE15B97848006800E028460446201D39
:10264000FFF7AEF878B9E06A00EB8000694951F80D
:10265000200040B994F82C10012088407149096885
:10266000814370480160A06A18B104F11800FFF7B7
:1026700097F86B480068401C694908606648006824
:10268000844209D1211D5F48FFF764F8684800685B
:10269000401C6749086009E05E480068401E5D49CB
:1026A00008602046FFF7B8FFFFF7A1FF01F080FEAA
:1026B0005A480068E8B158480068844219D15D481A
:1026C000006808B9012000E0002050B900BF502088
:1026D00080F31188BFF34F8FBFF36F8F00BF00BF30
:1026E000FEE74FF0805050490860BFF34F8FBFF3B3
:1026F0006F8F70BD2DE9F0414FF000084D48006824
:10270000002876D14C480068451C4B48056015BB35
:102710003E480068006808B9012000E0002050B978
:1027200000BF502080F31188BFF34F8FBFF36F8F2E
:1027300000BF00BFFEE735480768354800683349E9
:102740000860334807603D480068401C3B4908600A
:10275000FFF74DFF00BF3548006885423CD300BFFE
:102760002A480068006808B9012000E0002020B174
:102770004FF0FF302D4908602DE024480068C06804
:10278000C4686668B54202D22848066023E0201D6E
:10279000FFF706F8A06A18B104F11800FFF700F877
:1027A00094F82C10012088401E49096808431D49EF
:1027B0000860E16A01EB81010E4A02EB8100211DF4
:1027C000FEF7C8FF1449E06A0968C96A8842C7D39E
:1027D0004FF00108C4E700BF0F480068C06A00EB73
:1027E0008000044951F82000012801D94FF0010868
:1027F0002BE025E044030020A8030020BC030020B8
:10280000D0030020E4030020F8030020D0000020C3
:10281000D4000020DC000020CC000020E8000020D4
:10282000F8000020E400002004ED00E0FC0000209F
:10283000D800002004010020E0000020F400002067
:10284000FE480068401CFD490860FD48006808B16A
:102850004FF001084046BDE8F08170B50024002625
:10286000F848006850B900BF502080F31188BFF3CA
:102870004F8FBFF36F8F00BF00BFFEE701F071FD08
:10288000F0480068401EEF490860084600680028CC
:102890004FD1ED48006800284BD024E0EB48C068D9
:1028A000C46804F11800FEF77BFF201DFEF778FFD7
:1028B00094F82C1001208840E54909680843E44950
:1028C0000860E16A01EB8101E24A02EB8100211D0F
:1028D000FEF740FFE049E06A0968C96A884202D30E
:1028E0000120D7490860D948006808B9012000E0F4
:1028F00000200028D2D00CB1FFF779FECF48056840
:1029000065B100BFFFF7F6FE10B10120CC490860A9
:102910006D1E002DF6D10020C8490860C848006827
:1029200038B101263007CD490860BFF34F8FBFF3A0
:102930006F8F01F03DFD304670BD2DE9F041054639
:102940000E46C7480768C4480068001DFEF728FF08
:1029500050B9C148006890F82C1001208840BC494B
:1029600009688143BA480160681C38B936B1BA4871
:102970000168091DBB48FEF7EDFE1AE07C19B64858
:1029800000684460BC4207D2B3480168091DB648DC
:102990000068FEF7EBFE0CE0AF480168091DB34884
:1029A0000068FEF7E3FEB2480068844201D2B048F6
:1029B0000460BDE8F081A3480068401CA14908609C
:1029C00070472DE9F04704460F464FF0000954B90F
:1029D00000BF502080F31188BFF34F8FBFF36F8F7C
:1029E00000BF00BFFEE70FB1012000E0002050B99A
:1029F00000BF502080F31188BFF34F8FBFF36F8F5C
:102A000000BF00BFFEE78F48006808B9012000E062
:102A1000002050B900BF502080F31188BFF34F8FC2
:102A2000BFF36F8F00BF00BFFEE7FFF7C4FF8C4806
:102A300006682068C5192068B04207D92068A842F6
:102A40000BD9B54209D94FF0010906E02068A84228
:102A500001D8B54201D94FF001092560B9F1000F45
:102A600003D0A81B0021FFF768FFFFF7F6FE8046A2
:102A7000B8F1000F07D14FF0805078490860BFF3DC
:102A80004F8FBFF36F8FBDE8F08770B50446002508
:102A9000D4B16C48006808B9012000E0002050B9AA
:102AA00000BF502080F31188BFF34F8FBFF36F8FAB
:102AB00000BF00BFFEE7FFF77EFF00212046FFF7C3
:102AC0003CFFFFF7CAFE05463DB94FF08050634911
:102AD0000860BFF34F8FBFF36F8F70BD2DE9F041DA
:102AE00007463E4656B900BF502080F31188BFF319
:102AF0004F8FBFF36F8F00BF00BFFEE756480068DF
:102B0000864201D100241EE001F02BFC756901F022
:102B10004FFC56480068854203D053480068854200
:102B200001D102240FE04F48854205D1B06A08B9AF
:102B3000032408E0022406E04E48854200D00DB987
:102B4000042400E001242046BDE8F08170B504466D
:102B500001F007FC14B94048006800E02046064632
:102B6000F56A01F025FC284670BD2DE9F0410546C7
:102B700001F052FC00BF5021EFF3118081F3118866
:102B8000BFF34F8FBFF36F8F00BF044615B93248B4
:102B9000006800E028460746FE6A00BF84F31188FB
:102BA00000BF3046BDE8F0812DE9F04780460D4674
:102BB0004FF00009052D01D2012000E0002050B99E
:102BC00000BF502080F31188BFF34F8FBFF36F8F8A
:102BD00000BF00BFFEE7052D00D3042501F0C1FBB7
:102BE000B8F1000F02D11C48006800E040460446DE
:102BF000A66CAE4275D0B5420BD917480068844226
:102C00000DD015480068C06AA84208D84FF00109E5
:102C100005E011480068844201D14FF00109E76ADC
:102C2000E16AA06C884200D1E562A564A06900F069
:102C3000004010B9C5F10500A0611DE0EC000020C6
:102C4000F000002004010020DC000020D003002060
:102C5000E400002044030020CC00002004ED00E04C
:102C6000E0000020F8030020D4000020D000002065
:102C7000FC000020E403002007EB8701F74A02EB89
:102C800081016069884201D1012000E00020E0B1AB
:102C9000201DFEF785FD30B90120B840F0490968D4
:102CA0008143EF48016094F82C1001208840EC49E2
:102CB00009680843EA490860E16A01EB8101E74AD3
:102CC00002EB8100211DFEF745FDB9F1000F07D091
:102CD0004FF08050E3490860BFF34F8FBFF36F8F11
:102CE00000BF01F065FBBDE8F087DF48006818B160
:102CF0000120DE49086032E00020DC490860D84845
:102D00000068B0FA80F0C0F11F0101EB8100D34AE6
:102D100052F8200008B1012000E0002050B900BFA7
:102D2000502080F31188BFF34F8FBFF36F8F00BF28
:102D300000BFFEE701EB8102C84B03EB8200426853
:102D40005268426000F108024368934202D142682F
:102D5000526842604268D268C54B1A6000BF704733
:102D600070B5054601F0FDFA15B9C148006800E0EC
:102D700028460446201DFEF713FD78B9E06A00EBF3
:102D80008000B64951F8200040B994F82C10012079
:102D90008840B34909688143B1480160A06A18B10D
:102DA00004F11800FEF7FCFC211DB248FEF7D2FC2E
:102DB00001F0FEFAB048006828B101F0D2FAFFF73E
:102DC00016FC01F0F5FAAA480068844229D1AA4805
:102DD0000068D0B1A448006808B9012000E00020D4
:102DE00050B900BF502080F31188BFF34F8FBFF35D
:102DF0006F8F00BF00BFFEE74FF080509949086019
:102E0000BFF34F8FBFF36F8F0BE09A4800689B4969
:102E10000968884203D100209549086001E0FFF766
:102E200064FF70BD10B502460020114652B900BFC4
:102E3000502383F31188BFF34F8FBFF36F8F00BF11
:102E400000BFFEE78B4C4B69A34201D1012300E098
:102E5000002373B18A4C8B6AA34201D1012300E0A5
:102E6000002333B98B6A0BB9012300E0002303B1BF
:102E7000012010BD70B505462C4655B900BF502045
:102E800080F31188BFF34F8FBFF36F8F00BF00BF78
:102E9000FEE774B37648006884422AD001F061FAF4
:102EA0002046FFF7BFFF10B3201DFEF779FC94F812
:102EB0002C10012088406A49096808436849086065
:102EC000E16A01EB8101654A02EB8100211DFEF7F9
:102ED00041FC6749E06A0968C96A884207D34FF034
:102EE000805060490860BFF34F8FBFF36F8F01F0D0
:102EF0005FFA70BD2DE9F04106460027344656B909
:102F000000BF502080F31188BFF34F8FBFF36F8F46
:102F100000BF00BFFEE701F07FFA00BF5021EFF3D2
:102F2000118081F31188BFF34F8FBFF36F8F00BF04
:102F300005462046FFF776FF20B34B480068E0B90E
:102F40004B49E06A0968C96A884200D30127201DFD
:102F5000FEF726FC94F82C100120884040490968AF
:102F600008433F490860E16A01EB81013B4A02EBFB
:102F70008100211DFEF7EEFB04E004F1180140483A
:102F8000FEF7E8FB00BF85F3118800BF3846BDE8B7
:102F9000F08170B523E0FFF70EFD3A48006808B9EC
:102FA000012000E000200546FFF757FCBDB901F005
:102FB000D8F93448C068C468201DFEF7F1FB2F48DB
:102FC0000068401E2D4908602F480068401E2E49A9
:102FD000086001F0EDF92046FFF71EFB00BF2A480C
:102FE00000680028D7D170BD00BFFFF7D2FF1B4893
:102FF00000680128F9D94FF080501A490860BFF3E2
:103000004F8FBFF36F8FF0E71CB5204800210B46B0
:103010008222CDE900101EA11F48FFF7B8FA04462E
:10302000012C02D100F0AEFF0446012C3AD100BFC2
:10303000502080F31188BFF34F8FBFF36F8F00BF15
:103040004FF0FF301549086001200B49086000204F
:103050001349086001F0E0F835E000004403002067
:10306000E400002004ED00E004010020F000002056
:10307000CC000020F8030020E8000020DC00002045
:10308000D0030020E4030020D8000020000100202D
:1030900049444C4500000000E92F0008FC000020D6
:1030A000E0000020601C08B1012000E0002050B9C1
:1030B00000BF502080F31188BFF34F8FBFF36F8F95
:1030C00000BF00BFFEE71CBD10B500BF502080F35D
:1030D0001188BFF34F8FBFF36F8F00BF0020F849F7
:1030E000086001F029F910BDF6490868704770B50D
:1030F00001F092F90025F3480468204670BDF248BB
:1031000000687047014611B9F048006800E00846C1
:10311000024652B900BF502080F31188BFF34F8F91
:10312000BFF36F8F00BF00BFFEE702F134007047AE
:103130000246002101E0521C491C1078A528FAD053
:10314000890888B270472DE9F04107460C46904641
:103150001E4617B9DD48006800E038460546256080
:1031600005F134006060E86A2061286BE061286C3A
:10317000A060207B032807D1FFF71DFCA86A08B1D7
:1031800002202073FFF769FBA86C60610020A0613A
:10319000052E01D0267303E03846FFF79FFC20730D
:1031A000B8F1000F04D0286BFFF7C2FF208401E0C4
:1031B00000202084BDE8F0812DE9F04707460C4649
:1031C00090460026206848B320464168496841601F
:1031D00000F1080142688A4202D1416849684160B1
:1031E0004168D1F80C9000BF2046416849684160B1
:1031F00000F1080142688A4202D141684968416091
:103200004168CD6806EBC60007EB8001434601220A
:103210002846FFF798FF761C4D45E5D13046BDE8BE
:10322000F0872DE9F041054688461646002405271B
:10323000FFF7C1FBA4480068804539D300BF7F1E5B
:1032400007EB8702A24B03EB820104EBC40205EB00
:1032500082000122FFF7B0FF0444002FEFD104EBFE
:10326000C40105EB810002229A490968FFF7A4FF17
:10327000044404EBC40105EB81000222964909686D
:10328000FFF79AFF044404EBC40105EB810004221C
:103290009249FFF791FF044404EBC40105EB810060
:1032A00003228F49FFF788FF04440EB100203060ED
:1032B000FFF7D3FA2046BDE8F08170B504460D460D
:1032C00054B900BF502080F31188BFF34F8FBFF374
:1032D0006F8F00BF00BFFEE77C48016818312046B1
:1032E000FEF744FA01212846FFF727FB70BD70B5B1
:1032F00004460D46164654B900BF502080F311888D
:10330000BFF34F8FBFF36F8F00BF00BFFEE775485D
:10331000006808B1012000E0002050B900BF502033
:1033200080F31188BFF34F8FBFF36F8F00BF00BFD3
:10333000FEE745F000406549096888616348016817
:1033400018312046FEF706FA01213046FFF7F5FA5C
:1033500070BD70B505460E46144655B900BF5020E5
:1033600080F31188BFF34F8FBFF36F8F00BF00BF93
:10337000FEE75648016818312846FEF7EBF90CB114
:103380004FF0FF3621463046FFF7D7FA70BD70B5D3
:103390000646F068C46854B900BF502080F3118815
:1033A000BFF34F8FBFF36F8F00BF00BFFEE704F185
:1033B0001800FEF7F5F94B480068A8B9201DFEF784
:1033C000EFF994F82C100120884047490968084318
:1033D00045490860E16A01EB81013D4A02EB810049
:1033E000211DFEF7B7F904E004F118013F48FEF78C
:1033F000B1F93649E06A0968C96A884204D90125E9
:1034000001203B49086000E00025284670BD2DE9F9
:10341000F04105460F463348006808B1012000E03E
:10342000002050B900BF502080F31188BFF34F8FA8
:10343000BFF36F8F00BF00BFFEE747F0004028607A
:10344000EC6854B900BF502080F31188BFF34F8F50
:10345000BFF36F8F00BF00BFFEE72846FEF7A0F95D
:10346000201DFEF79DF994F82C10012088401E497C
:10347000096808431C490860E16A01EB8101144AAC
:1034800002EB8100211DFEF765F91049E06A096829
:10349000C96A884204D9012601201549086000E064
:1034A00000263046BDE8F08120BB00BF502181F3EB
:1034B0001188BFF34F8FBFF36F8F00BF00BFFEE7D0
:1034C000E8000020E0000020DC000020CC0000200C
:1034D00044030020D0000020D4000020E40300209A
:1034E000F803002004010020E4000020D0030020A5
:1034F000F0000020FE4909680160FE49096841604A
:10350000704770B504460D4654B900BF502080F393
:103510001188BFF34F8FBFF36F8F00BF00BFFEE76F
:1035200055B900BF502080F31188BFF34F8FBFF310
:103530006F8F00BF00BFFEE700F013FFED48036888
:103540002868401C08B9002619E0E9492068096884
:10355000884204D06068984201D801260FE0606874
:10356000181A2968884209D228686168591A401ACD
:1035700028602046FFF798FF002600E0012600F0B3
:1035800017FF304670BD0120DB49086070470146D7
:1035900011B10A46506C00E00020704708B10246A5
:1035A00051647047D54908687047D549096809B919
:1035B000012005E0D349096809B9022000E0002094
:1035C000704770B505462C46002D4BD0CB49E06ABC
:1035D0000968C96A884245D2A06900F0004028B94C
:1035E000C6480068C06AC0F10500A061E16A01EB4D
:1035F0008101C54A02EB81016069884201D1012045
:1036000000E0002050B3201DFEF7CAF878B9E06A48
:1036100000EB8000BC4951F8200040B994F82C1010
:1036200001208840B94909688143B8480160B3481E
:103630000068C06AE06294F82C1001208840B34909
:1036400009680843B1490860E16A01EB8101AE4AAB
:1036500002EB8100211DFEF77DF803E0A74800681A
:10366000C06AE06270BD70B505462C460026002D8C
:1036700055D0A2480068844201D1012000E000201A
:1036800050B900BF502080F31188BFF34F8FBFF3B4
:103690006F8F00BF00BFFEE7E06C50B900BF502045
:1036A00080F31188BFF34F8FBFF36F8F00BF00BF50
:1036B000FEE7E06C401EE064A16CE06A88422ED018
:1036C000E06C60BB201DFEF76BF878B9E06A00EB98
:1036D00080008D4951F8200040B994F82C10012049
:1036E00088408A490968814388480160A06CE0628B
:1036F000E06AC0F10500A06194F82C100120884018
:1037000082490968084381490860E16A01EB810147
:103710007D4A02EB8100211DFEF71CF80126304690
:1037200070BD76490968886974490968C96AC1F138
:103730000501724A1268916170477048006830B1A3
:103740006E49096801F14C00C96C491C01606B4865
:103750000068704770B506460D4600F002FE6748E7
:103760000068006D88B901206449096881F8540037
:103770005DB101212846FFF7E0F84FF08050644921
:103780000860BFF34F8FBFF36F8F00F011FE00F0A2
:10379000E8FD5A480068046D4CB126B10020574935
:1037A0000968086503E0601E54490968086500203F
:1037B0005249096881F8540000F0FAFD204670BDB6
:1037C0002DE9F0410746884614461D4600F0C9FD24
:1037D0004A48006890F85400022818D04749096800
:1037E00001F15000096DB9430160012043490968A6
:1037F00081F854005DB101212846FFF79EF84FF093
:10380000805043490860BFF34F8FBFF36F8F00F0C4
:10381000CFFD00F0A6FD1CB138480068006D2060A7
:103820003648006890F85400012801D1002608E0CD
:103830003249096801F15000096D21EA080101606F
:10384000012600202D49096881F8540000F0B0FDE0
:103850003046BDE8F0812DE9F04706460D46174693
:1038600098464FF0010A56B900BF502080F31188E6
:10387000BFF34F8FBFF36F8F00BF00BFFEE734462B
:1038800000F06FFDB8F1000F02D0206DC8F8000005
:1038900094F85490022084F85400052F17D2DFE8E2
:1038A00007F01503070B0D00206D284320650EE07F
:1038B000206D401C20650AE0256508E0B9F1020F83
:1038C00001D0256501E04FF0000A00E000BF00BF15
:1038D000B9F1010F46D1201DFDF762FF94F82C10BD
:1038E000012088400949096808430849086011E037
:1038F000F4000020E0000020F0000020CC000020B8
:10390000E80000200401002044030020E40000201F
:1039100004ED00E0E16A01EB8101A14A02EB8100C4
:10392000211DFDF717FFA06A08B9012000E0002063
:1039300050B900BF502080F31188BFF34F8FBFF301
:103940006F8F00BF00BFFEE79649E06A0968C96A49
:10395000884207D94FF0805093490860BFF34F8FDA
:10396000BFF36F8F00F024FD5046BDE8F0872DE9CE
:10397000F84F07460E4690469946DDF828B00120DC
:10398000009057B900BF502080F31188BFF34F8FCC
:10399000BFF36F8F00BF00BFFEE700F03DFD3C4668
:1039A00000BF5021EFF3118081F31188BFF34F8FD7
:1039B000BFF36F8F00BF0546B9F1000F02D0206D35
:1039C000C9F8000094F854A0022084F85400B8F11B
:1039D000050F17D2DFE808F01503070B0D00206D67
:1039E000304320650EE0206D401C20650AE026650E
:1039F00008E0BAF1020F01D0266501E00020009036
:103A000000E000BF00BFBAF1010F3ED1A06A08B9C3
:103A1000012000E0002050B900BF502080F3118841
:103A2000BFF34F8FBFF36F8F00BF00BFFEE75F484C
:103A30000068A8B9201DFDF7B3FE94F82C100120F2
:103A400088405B490968084359490860E16A01EB0D
:103A50008101534A02EB8100211DFDF77BFE04E04A
:103A600004F118015348FDF775FE4E49E06A0968F4
:103A7000C96A884209D9BBF1000F03D00120CBF8F5
:103A8000000002E001204C49086000BF85F3118866
:103A900000BF0098BDE8F88F2DE9F04105460F46BC
:103AA00055B900BF502080F31188BFF34F8FBFF38B
:103AB0006F8F00BF00BFFEE700F0AEFC2C4600BFDA
:103AC0005021EFF3118081F31188BFF34F8FBFF3C3
:103AD0006F8F00BF064694F85480022084F854008B
:103AE000206D401C2065B8F1010F3BD1A06A08B9D8
:103AF000012000E0002050B900BF502080F3118861
:103B0000BFF34F8FBFF36F8F00BF00BFFEE72748A3
:103B10000068A8B9201DFDF743FE94F82C10012081
:103B2000884023490968084321490860E16A01EB9C
:103B300081011B4A02EB8100211DFDF70BFE04E011
:103B400004F118011B48FDF705FE1649E06A0968F3
:103B5000C96A884206D917B10120386002E0012005
:103B60001549086000BF86F3118800BFBDE8F081E9
:103B700070B5054615B90B48006800E028460646B2
:103B800000F0EFFB96F85400022804D1002086F8DC
:103B90005400012400E0002400F00AFC204670BD1F
:103BA00044030020CC00002004ED00E004010020CC
:103BB000E4000020D0030020F00000202DE9F041B7
:103BC00004460D4616461F464FF000086560246106
:103BD000B5420CD8F01BA169884202D34FF001080E
:103BE00011E0211DF7480068FDF7C0FD0BE0BE4263
:103BF00004D2BD4202D34FF0010804E0211DF24877
:103C00000068FDF7B3FD4046BDE8F0812DE9FE43B5
:103C100004460D4616461F46DDF828804FF0000981
:103C200054B900BF502080F31188BFF34F8FBFF30A
:103C30006F8F00BF00BFFEE7E448006810B3009537
:103C400001960294062D15DAFFF7AFFC022808D181
:103C5000002342466946DD480068FDF7CBFE8146F9
:103C600010E000231A466946D8480068FDF7C2FEF6
:103C7000814607E000233A466946D4480068FEF7CB
:103C800028F981464846BDE8FE832DE9F84332E035
:103C9000CD480068C0680568CB480068C068C46843
:103CA000201DFDF77DFD2046616A8847E0690128F7
:103CB00021D1A0694619AE4207D966602461211D51
:103CC000C1480068FDF752FD15E0002003462A4672
:103CD000014600902046FFF799FF074657B900BFFD
:103CE000502080F31188BFF34F8FBFF36F8F00BF59
:103CF00000BFFEE700BFB4480068006808B90120B3
:103D000000E000200028C3D0AF48D0F80080AD48C4
:103D10000068AD490860AB48C0F80080BDE8F88392
:103D200070B50446FFF7E0F90546A94800688542EA
:103D300004D2FFF7AAFF0120206001E000202060EC
:103D4000A3480560284670BD70B586B06AE0039848
:103D5000002867DB059C606908B9012000E00020AD
:103D600010B9201DFDF71CFD02A8FFF7D9FF05467D
:103D700003980A2854D2DFE800F009050731334FD1
:103D80000608323400BF00BF00BF00BF0498A2691C
:103D9000811803462A462046FFF710FFE8B1204667
:103DA000616A8847E069012817D1002000900498D3
:103DB000A1694218002319462046FFF727FF06464F
:103DC00056B900BF502080F31188BFF34F8FBFF367
:103DD0006F8F00BF00BFFEE700BF22E000BF20E002
:103DE00000BF0498A061A06908B1012000E0002094
:103DF00050B900BF502080F31188BFF34F8FBFF33D
:103E00006F8F00BF00BFFEE7A06941192B462A460D
:103E10002046FFF7D3FE04E0204600F0AAFB00E0B6
:103E200000BF00BF00231A4603A968480068FDF7D9
:103E30001AFF00288BD106B070BDF8B505460F46B5
:103E400061480068C068C468201DFDF7A9FCE069EE
:103E500001281DD1A06941192B463A462046FFF79B
:103E6000ADFEA8B1002003462A4601460090204638
:103E7000FFF7CCFE064656B900BF502080F31188EC
:103E8000BFF34F8FBFF36F8F00BF00BFFEE700BFD0
:103E90002046616A8847F8BDF8B505460C46FEF72E
:103EA0008AFD6846FFF73CFF0646009820BB44B9F0
:103EB000B54206D8FEF7D1FC31462846FFF7BDFFD4
:103EC0001CE03CB13F480068006808B9012000E0F0
:103ED00000200446A91B22463C480068FEF765FA0C
:103EE000FEF7BBFC50B94FF080503A490860BFF371
:103EF0004F8FBFF36F8F01E0FEF7AFFCF8BD0146B7
:103F0000314A126812680AB9012200E000220A60F0
:103F10000A6822B92C4A1268D268106800E00020B2
:103F2000704708B500BF6846FFF7E9FF0446204622
:103F30000099FFF7B1FFFFF707FFF4E710B500F0B6
:103F400010FA22480068D0B92348FDF7F3FB234854
:103F5000FDF7F0FB20481C4908602048194908601B
:103F600000220C210A20FDF78DFC18490860084644
:103F7000006820B11AA115480068FEF7F0F900F0BA
:103F800017FA10BD1CB50024FFF7D8FF0F480068D2
:103F900058B11548042100234FF48272CDE9001076
:103FA00012A11448FEF7F3FA044654B900BF50209A
:103FB00080F31188BFF34F8FBFF36F8F00BF00BF37
:103FC000FEE719E00C01002008010020100100208C
:103FD0001801002004ED00E00C0400202004002063
:103FE000546D72510000000014010020546D7220C5
:103FF00053766300233F000820461CBD2DE9F0479F
:1040000006460D4617469846DDE908940DB1012095
:1040100000E0002050B900BF502080F31188BFF3AA
:104020004F8FBFF36F8F00BF00BFFEE75CB1FFF79C
:1040300085FF2660A561E761C4F82080C4F824905C
:10404000201DFDF784FBBDE8F0872DE9FC47054600
:104050000E4617469846DDF828902C2000F037FAD7
:1040600004463CB143463A4631462846CDE90094E1
:10407000FFF7C4FF2046BDE8FC874748006808B149
:10408000012000E0002050B900BF502080F31188CB
:10409000BFF34F8FBFF36F8F00BF00BFFEE73E48F7
:1040A0000068704701460A4651B900BF502080F3AE
:1040B0001188BFF34F8FBFF36F8F00BF00BFFEE7C4
:1040C0009069704710B501460A4651B900BF5023A8
:1040D00083F31188BFF34F8FBFF36F8F00BF00BF13
:1040E000FEE7506810BD01460A4651B900BF502096
:1040F00080F31188BFF34F8FBFF36F8F00BF00BFF6
:10410000FEE71068704770B50446264654B900BFF4
:10411000502080F31188BFF34F8FBFF36F8F00BF24
:1041200000BFFEE700F01DF9706908B9012000E04A
:10413000002080F0010500F03BF9284670BD70B505
:104140000446254654B900BF502080F31188BFF3C0
:104150004F8FBFF36F8F00BF00BFFEE700F001F984
:104160002E6A00F025F9304670BD70B504460D4644
:10417000264654B900BF502080F31188BFF34F8FFB
:10418000BFF36F8F00BF00BFFEE700F0EAF83562B3
:1041900000F00EF970BD000014010020B94800685D
:1041A000401C08B9012000E0002050B900BF502099
:1041B00080F31188BFF34F8FBFF36F8F00BF00BF35
:1041C000FEE700BF502080F31188BFF34F8FBFF38D
:1041D0006F8F00BF00BFFEE7001F4FF080730360CA
:1041E000001F21F001030360001FA74B0360143878
:1041F0000260001F6FF00203036020387047A3487D
:1042000000684FF47A71B0FBF1F0401E4FF0E021EE
:1042100048610720086170471CB59D4800689D49AA
:10422000884201D0012000E0002050B900BF50209A
:1042300080F31188BFF34F8FBFF36F8F00BF00BFB4
:10424000FEE7934800689349491E884201D0012047
:1042500000E0002050B900BF502080F31188BFF368
:104260004F8FBFF36F8F00BF00BFFEE78A4908463C
:1042700000780190FF200A461070084600780090F0
:104280009DF8000000F0F0009DF80020904201D160
:10429000012000E0002050B900BF502080F31188B9
:1042A000BFF34F8FBFF36F8F00BF00BFFEE79DF8D6
:1042B000000000F05000794A10700720784A106022
:1042C00009E077480068401E754A10609DF80000BC
:1042D0004006000E00909DF8000000F0800080284D
:1042E000EFD06F48006800026D4A106010460088E9
:1042F00000F4E0601060684A019810706448203053
:10430000006840F470006249203108600846006887
:1043100040F070400860FFF772FF002059490860C4
:10432000FBF7C2FF5F48006840F040405D4908600D
:10433000FBF7AAFF00201CBD52480068B0F57A7F49
:1043400001D1012000E0002050B900BF502080F3CF
:104350001188BFF34F8FBFF36F8F00BF00BFFEE721
:10436000704700BF502080F31188BFF34F8FBFF319
:104370006F8F00BF43480068401C424908600846F0
:104380000068012813D14248001D0068C0B208B976
:10439000012000E0002050B900BF502080F31188B8
:1043A000BFF34F8FBFF36F8F00BF00BFFEE77047B3
:1043B0003448006850B900BF502080F31188BFF323
:1043C0004F8FBFF36F8F00BF00BFFEE72D4800681F
:1043D000401E2C4908600846006820B9002080F380
:1043E000118800BF00BF704710B500BF502080F398
:1043F0001188BFF34F8FBFF36F8F00BFFEF77AF9BD
:1044000020B14FF080502249091D086000BF0020F4
:1044100080F3118800BF10BD70B5FBF77DFF044627
:10442000102C16D304F1E02090F8F0531B480078CC
:10443000854201DB012000E0002050B900BF502080
:1044400080F31188BFF34F8FBFF36F8F00BF00BFA2
:10445000FEE70F480C30006800F4E060104909687E
:10446000884201D8012000E0002050B900BF502050
:1044700080F31188BFF34F8FBFF36F8F00BF00BF72
:10448000FEE770BD1C0100209D41000800000020D7
:1044900000ED00E071C20F4100E400E020010020C7
:1044A0002401002034EF00E0424A22F00700424A93
:1044B00010600022404B5A60404A414B5A60002233
:1044C0001A6001463D4A4A601A460A6070472DE963
:1044D000F04104464FF00008FEF76DFA39480068D5
:1044E00020B9FFF7E1FF01203649086044B10834E4
:1044F00004F0070020B104F00700C0F108000444F4
:10450000002C31D02D4884422ED22B4F38460568DE
:1045100001E02F462D686868A04202D22868002872
:10452000F7D1274885421FD0386800F1080828686D
:1045300038606868001B102810D92E196868001BA5
:1045400070606C6071681C4800E000680268526826
:104550008A42FAD302683260066000BF1A4968686E
:104560000968081A18490860FEF777F94046BDE85F
:10457000F08170B506463546B6B1083D2C46FEF7CB
:104580001AFA61680C4800E00068026852688A42C2
:10459000FAD30268226004600B4960680968084425
:1045A00009490860FEF759F970BD0748006870476F
:1045B000704700003C04002028010020F82B010077
:1045C000300100203C010020380100203249014325
:1045D000324A1160704770B5002100230F22C47861
:1045E0001CB32E4C246804F4E064C4F5E064C4F306
:1045F0000721C1F10404E3B20A4144789C40E1B2CE
:104600008478144021430C07210E254C0578615510
:10461000047804F01F050124AC4005786D11AD004D
:1046200005F1E025C5F8004109E0047804F01F0514
:104630000124AC401B4D0678761145F8264070BD2C
:10464000194A0A400243154B1B1F1A60704739B1C3
:10465000124A121D12680243104B1B1D1A6006E01D
:104660000E4A121D126882430C4B1B1D1A607047C4
:10467000042808D14FF0E021096941F004014FF00E
:10468000E022116107E04FF0E021096921F0040107
:104690004FF0E022116170470000FA050CED00E0D8
:1046A00000E400E080E100E080FFFF1F00204149BE
:1046B0000860091D0860091D0860091D08603E4862
:1046C0003C4914310860704700213A498279002A38
:1046D0003AD00A46126803689A430B461A600A1DCC
:1046E000126803689A430B1D1A60027911440A6824
:1046F00003681A430A602F4A0832126803689A4313
:104700002C4B08331A601A1D126803689A43294B10
:104710000C331A604279102A0ED11A1F12680368EE
:104720001A43244B08331A601A1D126803681A438F
:10473000204B0C331A600DE01E49427911440A687F
:1047400003681A430A6005E0027911440A680368A5
:104750009A430A6070470021016001710C21417188
:104760000021817170471349103109680143114AD2
:10477000103211607047014600200E4A1432126850
:104780000A400AB1012000E00020704709491431B5
:104790000860704701460020064A143212680A4039
:1047A0000AB1012000E0002070470249143108607E
:1047B00070470000003C0140FFFF7F0010B5044639
:1047C0009848844208D10121084600F0B2FD00213A
:1047D000012000F0AEFD76E09348844208D101212B
:1047E000022000F0A6FD0021022000F0A2FD6AE0F8
:1047F0008E48844208D10121042000F09AFD002156
:10480000042000F096FD5EE08948844208D1012131
:10481000082000F08EFD0021082000F08AFD52E003
:104820008448844208D10121102000F082FD00213B
:10483000102000F07EFD46E07F48844208D101212F
:10484000202000F076FD0021202000F072FD3AE0EB
:104850007A48844208D10121402000F06AFD0021FD
:10486000402000F066FD2EE07548844208D1012109
:10487000802000F05EFD0021802000F05AFD22E043
:104880007048844208D10121801500F052FD0021BA
:10489000A01500F04EFD16E06B48844208D10121BE
:1048A000401500F046FD0021601500F042FD0AE0D1
:1048B0006648844207D10121001500F03AFD00212D
:1048C000201500F036FD10BDF0B50A46002100238A
:1048D000002400BF3DE0012505FA01F3156805EA53
:1048E00003049C4234D105684F000326BE40B54303
:1048F000056015794E00B5400668354305601579A9
:10490000012D02D01579022D16D185684F0003269E
:10491000BE40B543856055794E00B5408668354345
:104920008560456801268E40B543456045689679A7
:104930008E40B6B235434560C5684F000326BE4081
:10494000B543C560D5794E00B540C6683543C560EE
:10495000491C1029BFD3F0BD4FF6FF710160002143
:10496000017141718171C171704708B54FF4803296
:104970000092009A0A430092009AC261C161009AB3
:10498000C261C2690092C269009208BD024600205D
:1049900013690B400BB1012000E000207047014675
:1049A000086980B270470246002053690B400BB182
:1049B000012000E0002070470146486980B270473E
:1049C00001837047418370470AB1018300E041834E
:1049D00070474161704742694A4042617047F0B593
:1049E000002300244D07ED0E02FA05F3CE1000F16E
:1049F000200555F826504E07F70E0F26BE40B5434A
:104A0000CF1000F1200646F82750CE1000F1200507
:104A100055F8265045EA0304CE1000F1200545F86C
:104A20002640F0BD000002400004024000080240A1
:104A3000000C024000100240001402400018024026
:104A4000001C0240002002400024024000280240D6
:104A500010B50446F848844209D10121480500F008
:104A60009BFC00214FF4001000F096FC18E0F34886
:104A7000844209D10121880500F08EFC00214FF409
:104A8000800000F089FC0BE0ED48844208D1012150
:104A9000C80500F081FC00214FF4000000F07CFC10
:104AA00010BD2DE9FF4704460D460026B1460427F8
:104AB000DFF89083A6884FF6C0700640684600F085
:104AC000FCFADDF80880E048B8FBF0F01FFA80F946
:104AD00046EA0906A68020884FF6FE71084020802D
:104AE0000026DA49286888420CD828684000B8FBBC
:104AF000F0F087B2042F00DA04273E4309F10100E9
:104B0000208427E0E8884BF6FF71884206D12868A8
:104B100000EB4000B8FBF0F087B209E0286800EB3A
:104B2000C00101EB0010B8FBF0F087B247F48047FA
:104B3000C7F30B0008B947F0010747F400400643EC
:104B40004FF4967009FB00F04FF47A7190FBF1F08E
:104B5000401C2084A683208840F001002080268805
:104B60004FF6F5300640A888698908430643268039
:104B7000A889298908432081BDE8FF8741F288314F
:104B80000160002181804BF6FF71C180002101810D
:104B900041814FF480418181704721B1028842F008
:104BA0000102028004E002884FF6FE731A40028080
:104BB000704729B1828C4FF6EF731A40828403E06C
:104BC000828C42F01002828470470A460021818C58
:104BD0004FF6F073194002F00F03194381847047B8
:104BE00021B1028842F48072028004E002884FF60C
:104BF000FF631A400280704721B1028842F40072BC
:104C0000028004E002884FF6FF531A40028070478A
:104C100012B141F0010101E001F0FE010182704793
:104C200021B1028842F48062028004E002884FF6DB
:104C3000FF331A40028070470A46002181894FF6EF
:104C40000173194002F0FE0319438181704721B1BD
:104C5000828942F00102828104E082894FF6FE736C
:104C60001A408281704721B1028842F040020280DE
:104C700004E002884FF6BF731A400280704721B1EA
:104C8000028842F40042028003E00288C2F30E026E
:104C90000280704721B9028842F08002028004E05D
:104CA00002884FF67F731A4002807047B1F5804F3B
:104CB00005D0828B4BF6FF731A40828303E0828B10
:104CC00042F4804282837047B1F5006F04D10288BC
:104CD00042F40062028004E002884FF2FF731A403F
:104CE00002807047B1F5005F04D1028842F400529F
:104CF000028004E002884DF6FF731A40028070477C
:104D000021B1028842F01002028004E002884FF6CE
:104D1000EF731A4002807047018270470146088A8B
:104D2000C0B2704721B1028842F48052028004E090
:104D300002884EF6FF731A4002807047B1F5006F8B
:104D400004D1028842F40062028004E002884FF23B
:104D5000FF731A400280704721B1028842F020029E
:104D6000028004E002884FF6DF731A400280704729
:104D70000146088B0012704721B1828842F400621C
:104D8000828004E082884FF2FF731A40828070476D
:104D900021B1828842F48052828004E082884EF6FB
:104DA000FF731A408280704708B5024600200090C9
:104DB00000920098084400900098008808BD1AB13D
:104DC00083880B43838002E083888B438380704712
:104DD00070B502460024002500230020958A138B1D
:104DE0001B0445EA030626F07F4404EA01068E42CE
:104DF00001D1012000E0002070BD10B50146002067
:104E0000002300228B8A0A8B120443EA020424F056
:104E10007F4010BD0CB50246002000230193009393
:104E200000920B0F019321F07F41019B83B1009B06
:104E30001433009310E0000000540040005800407C
:104E4000005C004000127A0040420F00A086010082
:104E5000090C009B18330093009B1B680B400BB19F
:104E6000012000E000200CBD002221F07F42D3434E
:104E70008382704730B5024600200023948801F0F9
:104E8000E06504EA154321F07F41948A0C4014B197
:104E90000BB1012000E0002030BD002221F07F4254
:104EA000D343838270470000F948006840F0010056
:104EB000F74908600020F64908310860F4480068A6
:104EC000F4490840F2490860F348091D0860F348B6
:104ED000EF4984310860F0481038091D0860EC483B
:104EE000006820F48020EA4908600020E8490C317D
:104EF0000860E7498C31086070470021E44A921C41
:104F0000117011460870704710B501460022002349
:104F100000204A11012A02D1DD4C236808E0022A50
:104F200003D1DB4C7034236802E0D94C743423681D
:104F300001F01F02012494401C400CB1012000E04C
:104F4000002010BD38B5002000900024002500BFCF
:104F50003120FFF7D9FF05460098401C00900098CB
:104F6000B0F5A04F01D0002DF2D03120FFF7CCFFDB
:104F700008B1012400E00024204638BD014600208D
:104F8000C34A106820F0F80040EAC1001060704782
:104F9000C349086070470021BD4A7032117011701A
:104FA000012802D004280AD104E00121B84A703255
:104FB000117005E00521B64A7032117000E000BFA3
:104FC00000BF7047B7490860704770B5049C41EA5C
:104FD00082150126C6EB530645EA0645054345EA18
:104FE0000465AB4E361D356070BDAD49086670472F
:104FF000820142EA0172A64B84331A607047A849C5
:105000008866704710B5830143EA016343EA02737F
:105010009F4C8834236010BDA14908677047A049A0
:10502000C864704702460020994B0833186820F086
:10503000EC6042EA01031843954B0833186070474F
:1050400002460020924B0833186820F0784042EA6C
:10505000010318438E4B0833186070470146002047
:105060008B4A0832106820F0030008431060704734
:1050700087480830006800F00C00704701460020A7
:10508000834A0832106820F0F0000843106070472F
:10509000014600207E4A0832106820F4E0500843A0
:1050A0001060704701460020794A0832106820F4E9
:1050B000604040EAC10010607047F0B50021002256
:1050C0000024022500260223714F08373F6807F0AD
:1050D0000C0121B1042905D0082937D105E0724F10
:1050E000076036E0714F076033E0694F3F1D3F684E
:1050F000C7F38056664F3F1D3F6807F03F036EB110
:105100006A4FB7FBF3F7DFF888C10CF1040CDCF849
:1051100000C0CCF3881C07FB0CF40CE0624FB7FB1B
:10512000F3F7DFF86CC10CF1040CDCF800C0CCF331
:10513000881C07FB0CF4564F3F1D3F68C7F301471F
:105140007F1C7D00B4FBF5F7076002E0564F076057
:1051500000BF00BF4E4F08373F6807F0F001090954
:10516000534F7A5C0768D7404760494F08373F681C
:1051700007F4E051890A4E4F7A5C4768D740876050
:10518000434F08373F6807F46041490B484F7A5C4A
:105190004768D740C760F0BD002100F44072B2F507
:1051A000407F0AD13A4A0832116821F4F811414A85
:1051B00002401143364A08321160354A7032126893
:1051C000C0F30B031A43324B70331A6070473549F2
:1051D00044390860704733494039086070473649A0
:1051E0000860704701460020294A8C32106820F080
:1051F0001F004A1E1043264A8C3210607047014639
:105200000020234A8C32106820F4F8504A1E40EAED
:1052100002201F4A8C3210607047014600201C4A51
:105220008C32106820F4401008431060704701462B
:105230000020174A8C32106820F4400008431060A8
:10524000704701460020124A8C32106820F440302A
:1052500008431060704719490860704739B10C4A1B
:105260003032126802430A4B30331A6006E0084AB3
:10527000303212688243064B30331A607047F9B1FE
:10528000034A343212680243014B34331A601CE083
:1052900000380240FFFFF6EA103000240030002002
:1052A00000004742800E47420024F40000127A00BA
:1052B00040010020FFFCFF0F5C014742E011474224
:1052C000854A12688243844B1A60704739B1824A1A
:1052D000121D12680243804B1B1D1A6006E07E4AB5
:1052E000121D126882437C4B1B1D1A60704739B136
:1052F000794A0C3212680243774B0C331A6006E08D
:10530000754A0C3212688243734B0C331A60704733
:1053100039B1714A1032126802436F4B10331A6070
:1053200006E06D4A1032126882436B4B10331A60EC
:10533000704739B1684A243A12680243664B243BED
:105340001A6006E0644A243A12688243624B243BA6
:105350001A60704739B1604A203A126802435E4BC6
:10536000203B1A6006E05C4A203A126882435A4B9E
:10537000203B1A60704739B1574A1C3A1268024301
:10538000554B1C3B1A6006E0534A1C3A1268824394
:10539000514B1C3B1A60704739B14F4A143A12689E
:1053A00002434D4B143B1A6006E04B4A143A126814
:1053B0008243494B143B1A60704739B1464A103A50
:1053C00012680243444B103B1A6006E0424A103A0E
:1053D00012688243404B103B1A60704739B13E4A15
:1053E0001C32126802433C4B1C331A6006E03A4AF6
:1053F0001C3212688243384B1C331A60704739B133
:10540000354A203212680243334B20331A6006E0DB
:10541000314A2032126882432F4B20331A60704782
:1054200039B12D4A2432126802432B4B24331A60BF
:1054300006E0294A243212688243274B24331A603B
:10544000704739B1244A2C3212680243224B2C3364
:105450001A6006E0204A2C32126882431E4B2C331D
:105460001A60704739B11C4A3032126802431A4B35
:1054700030331A6006E0184A303212688243164B05
:1054800030331A60704739B1134A273A1278024311
:10549000114B273B1A7006E00F4A273A12788243D5
:1054A0000D4B273B1A7070470B484030006840F0A6
:1054B0008070094940310860704701460020064A63
:1054C000283A12680A400AB1012000E00020704723
:1054D00001492639087070473438024010B5044637
:1054E000F648844208D101218014FFF766FF0021AD
:1054F000A014FFF762FF3CE0F148844208D101218B
:105500000014FFF749FF00212014FFF745FF30E0AA
:10551000EC48844208D10121C013FFF73DFF002170
:10552000E013FFF739FF24E0E748844208D1012166
:105530004014FFF742FF00216014FFF73EFF18E020
:10554000E248844209D101210805FFF736FF002116
:105550004FF48010FFF731FF0BE0DD48844208D1A3
:1055600001214805FFF729FF00214FF40010FFF744
:1055700024FF10BD10B50022028802F441520B88AE
:105580004C8823438C882343CC8823430C892343B2
:105590004C8923438C892343CC8923431A430280BB
:1055A000838B4FF2FF74234083830B8A038210BDE9
:1055B0002DE9F04F002502230024012700220026B8
:1055C000944690469146B0F81CA04FF2400B0AEA70
:1055D0000B0AA0F81CA04FF0020AA0F820A0858BAF
:1055E000D1F808A0BAF1020F01D100BF6CE0B1F808
:1055F00004A0BAF1000F01D1012700E00227DFF873
:10560000D4A2DAF800A00AF4000ABAF1000F09D017
:10561000DFF8C0A2DAF800A02AF4000ADFF8B4B27A
:10562000CBF800A0DFF8ACA20AF17C0ADAF800A0FF
:10563000CAF38818DFF89CA20AF17C0ADAF800A005
:10564000CAF30279DFF88CA2AAF1040ADAF800A002
:105650000AF03F0CDFF880A2BAFBFCFA0AFB08FA5A
:10566000BAFBF9F6B1F806A0BAF5007F0ED14FEA01
:10567000162A0AEB8A0A4FEA4A0AD1F808B0BAFB9E
:10568000FBFA0AF1050A1FFA8AF20FE04FEA471AFD
:10569000B6FBFAFA0AEB8A0A4FEA4A0AD1F808B0CE
:1056A000BAFBFBFA0AF1050A1FFA8AF24FF00A0A5E
:1056B000B2FBFAF202F00104A2EB040ACAF34F03B0
:1056C0004FF6FF7A0AEA0424022B01DBFF2B01DDEF
:1056D00002230024B1F806A04AEA040A4AEA030AAF
:1056E000A0F820A0B1F804A0B1F80CB04AEA0B0A67
:1056F000B1F802B04AEA0B0AB1F800B04AEA0B0A64
:105700004AF4006A4AEA05058583BDE8F08F002166
:10571000018041808180C180018141818181C1817D
:105720000721018270470021018041808180C18072
:105730000221816000218181704721B1028842F0FD
:105740004002028004E002884FF6BF731A400280D4
:10575000704721B1828B42F48062828304E0828BA5
:105760004FF6FF331A408283704702884FF2FF736F
:105770001A40028002880A4302807047B1F5804FC8
:1057800004D1028842F48042028004E002884BF691
:10579000FF731A40028070474FF6FF62914204D0B7
:1057A000028842F48072028004E002884FF6FF63B0
:1057B0001A400280704721B1828842F00402828040
:1057C00004E082884FF6FB731A408280704721B153
:1057D000828842F01002828004E082884FF6EF73E4
:1057E0001A408280704730B500220023848B4FF22C
:1057F00040052C40848302240484828B0C88B4F5F9
:10580000007F01D00C8814B94FF4807308E00C8835
:10581000B4F5407F03D00C88B4F5807F00D100231D
:105820008C888D892C434D882C431C4344F40064A0
:105830002243828330BD0146888970478181704749
:1058400021B1028842F40052028004E002884DF641
:10585000FF731A4002807047018841F48051018033
:10586000704702460020012901D0108B00E0908A89
:1058700070470146088A70471AB183880B438380BA
:1058800002E083888B438380704730B50024002377
:105890000C110125A540ABB21AB185881D43858046
:1058A00002E085889D43858030BD02460020138933
:1058B0000B400BB1012000E0002070470030014098
:1058C00000380040003C00400034014000500140DE
:1058D000005401400838024000127A00CA43028195
:1058E0007047F0B50246002000240023002501F097
:1058F0000F070126BE40B4B20B1101269E40B3B281
:10590000968806EA03051689264016B10DB10120D6
:1059100000E00020F0BD10B5002201F00F040123CB
:10592000A3409AB2D343038110BD000010B50121FA
:105930008803FFF742FD00214FF48040FFF73DFD53
:1059400010BD1C49086070471B490862704730B59C
:1059500000228B071C0F0F2303FA04F2154B0833A8
:105960008C1053F824309343124C08348D1044F8B3
:10597000253023468C1053F824308C07240F00FA6E
:1059800004F423430B4C08348D1044F8253030BD0B
:105990000949DC31086070470849086070470020F9
:1059A00004492031096801F4807109B1012000E047
:1059B00000207047003801400000274200042742C1
:1059C00010B50446FA48844208D101211020FFF79F
:1059D000F4FC00211020FFF7F0FC57E0F54884426A
:1059E00009D101214804FFF7D7FC00214FF4003012
:1059F000FFF7D2FC4AE0F048844209D10121880433
:105A0000FFF7CAFC00214FF48020FFF7C5FC3DE002
:105A1000EA48844209D10121C804FFF7BDFC0021F6
:105A20004FF40020FFF7B8FC30E0E548844209D18C
:105A300001210805FFF7B0FC00214FF48010FFF7AB
:105A4000ABFC23E0DF48844208D101212020FFF78E
:105A5000B4FC00212020FFF7B0FC17E0DA488442B4
:105A600009D101218807FFF797FC00214FF0804002
:105A7000FFF792FC0AE0D548844207D10121400596
:105A8000FFF78AFC00216005FFF786FC10BD2DE9B9
:105A9000FF4705460E460024A14600BFA046B08938
:105AA00000B100BF2C8A24F44054F08804432C82B7
:105AB000AC8941F20C608443B08831890843718914
:105AC00008430443AC81AC8A24F44074B089044395
:105AD000AC826846FFF7F1FAB548854202D0B94872
